:100000000C9462000C94830B0C945C0B0C948A008F
:100010000C948A000C948A000C948A000C948A0038
:100020000C948A000C948A000C948A000C948A0028
:100030000C948A000C948A000C948A000C948A0018
:100040000C94120B0C948A000C94D00B0C94AA0BF9
:100050000C948A000C948A000C948A000C948A00F8
:100060000C948A000C948A000000000024002700F1
:100070002A0000000000250028002B0000000008D6
:10008000000201000003040700000000000000005F
:1000900000000000230026002900040404040404D6
:1000A0000404020202020202030303030303010227
:1000B00004081020408001020408102001020408F6
:1000C0001020020C11241FBECFEFD8E0DEBFCDBF41
:1000D00011E0A0E0B1E0E6E7F2E202C005900D9287
:1000E000A23AB107D9F722E0A2EAB1E001C01D921D
:1000F000A438B207E1F710E0C2E6D0E004C02197CF
:10010000FE010E942E11C136D107C9F70E946D0C65
:100110000C9439110C940000CF92DF92EF92FF9271
:10012000CF93DF93B0916102882311F0AB2F01C010
:10013000A0E08091620290E0880F991F80579F4F46
:10014000C0906702D0906802E0906902F0906A0265
:1001500020E030E0FC01C591D491E881EB23A901B6
:1001600060E070E0EA130CC02F5F3F4F4C155D0557
:100170006E057F0578F33FEF2FEF8FEF9FEF03C002
:10018000322F252FCB01632F722FDF91CF91FF905C
:10019000EF90DF90CF900895833081F028F4813084
:1001A00099F08230A1F008958730A9F08830B9F035
:1001B0008430D1F4809180008F7D03C080918000D5
:1001C0008F7780938000089584B58F7702C084B5BF
:1001D0008F7D84BD08958091B0008F7703C080919A
:1001E000B0008F7D8093B00008951F93CF93DF936D
:1001F000282F30E0F901E458FF4F8491F901E255CE
:10020000FF4FD491F901E656FF4FC491CC23C9F0BA
:10021000162F81110E94CC00EC2FF0E0EE0FFF1F93
:10022000EE58FF4FA591B4918FB7F894111105C006
:100230009C91ED2FE095E92302C0EC91ED2BEC931E
:100240008FBFDF91CF911F910895CF93DF9390E0FF
:10025000FC01E255FF4F2491FC01E656FF4F8491CB
:10026000882361F190E0880F991FFC01E859FF4F46
:10027000C591D491FC01EE58FF4FA591B491611145
:1002800009C09FB7F8948881209582238883EC91D8
:100290002E230BC0623061F49FB7F8943881822F0F
:1002A000809583238883EC912E2B2C939FBF06C0CF
:1002B0008FB7F894E8812E2B28838FBFDF91CF91E1
:1002C00008953FB7F8948091B9019091BA01A09137
:1002D000BB01B091BC0126B5A89B05C02F3F19F00A
:1002E0000196A11DB11D3FBFBA2FA92F982F8827B6
:1002F000820F911DA11DB11DBC01CD0142E0660F11
:10030000771F881F991F4A95D1F708958F929F9262
:10031000AF92BF92CF92DF92EF92FF926B017C017E
:100320000E9461014B015C01C114D104E104F1049C
:10033000F1F00E946101DC01CB0188199909AA0939
:10034000BB09883E9340A105B10570F321E0C21AB4
:10035000D108E108F10888EE880E83E0981EA11C00
:10036000B11CC114D104E104F10419F7DDCFFF90F1
:10037000EF90DF90CF90BF90AF909F908F900895B7
:100380002FB7F8946091B5017091B6018091B701D3
:100390009091B8012FBF0895CF92DF92EF92FF9214
:1003A0000F931F93CF93DF93CDB7DEB7C054D140E7
:1003B0000FB6F894DEBF0FBECDBF0E94C001009102
:1003C00063021091640220916502309166026B0114
:1003D0007C01C01AD10AE20AF30A40EDC41647E0D4
:1003E000D406E104F10418F480916B02C1C060935B
:1003F0006302709364028093650290936602109288
:100400005E0210925D0210925C0210925B021092EA
:100410005A0262E080915F020E94250161E070E073
:1004200080E090E00E94860161E080915F020E947E
:10043000250160E080915F020E94F50080916002DA
:100440008551823028F48BE291E10197F1F706C0E3
:1004500064E170E080E090E00E94860162E08091BB
:100460005F020E9425018BE990E00197F1F7F89473
:1004700080E00E948C006F3F7F4F8F4F9F4F21F491
:1004800010926B02789441C081E00E948C006F3F13
:100490007F4F8F4F9F4FA1F38E010F5F1F4F6E0154
:1004A0002FEBC21A2EEFD20A780180E00E948C0056
:1004B000F701608371838283938381E00E948C00C3
:1004C000F7016483758386839783F8E0EF0EF11C50
:1004D000EC14FD0451F7789420E030E0F8014081FD
:1004E000518162817381C480D580E680F7804F3F5F
:1004F000FFEF5F076F077F0731F08FEFC816D80651
:10050000E806F80621F410926B0280E031C0F90190
:1005100083E0F595E7958A95E1F7E65AFD4F8081EE
:10052000880F4C155D056E057F0508F4816080839A
:100530002F5F3F4F085F1F4F2832310579F620911A
:100540005E0230E040915A0280915B0290E0840F9D
:10055000911D40915C02840F911D40915D02840FBA
:10056000911D99272817390771F681E080936B0256
:10057000C05CDE4F0FB6F894DEBF0FBECDBFDF917B
:10058000CF911F910F91FF90EF90DF90CF90089542
:100590000895DC01ED91FC910190F081E02D09942A
:1005A000CF92DF92EF92FF920F931F93CF93DF933F
:1005B0006C017A018B01C0E0D0E0CE15DF0589F037
:1005C000D8016D918D01D601ED91FC910190F081E2
:1005D000E02DC6010995892B11F47E0102C02196F8
:1005E000ECCFC701DF91CF911F910F91FF90EF905A
:1005F000DF90CF9008959091AF0181E0892780939B
:10060000AF010895FC01538D448D252F30E0842FD8
:1006100090E0821B930B541710F0CF96089501972A
:100620000895FC01918D828D981761F0828DDF0114
:10063000A80FB11D5D968C91928D9F5F9F73928FD5
:1006400090E008958FEF9FEF0895FC01918D828DCA
:10065000981731F0828DE80FF11D858D90E0089597
:100660008FEF9FEF0895FC01918D228D892F90E0EF
:10067000805C9F4F821B91098F73992708958DEBA2
:1006800091E00E94330321E0892B09F420E0822FBE
:100690000895FC01848DDF01A80FB11DA35ABF4F3F
:1006A0002C91848D90E001968F739927848FA68971
:1006B000B7892C93A089B1898C9180648C93938D98
:1006C000848D981306C00288F389E02D80818F7D88
:1006D00080830895EF92FF920F931F93CF93DF9340
:1006E000EC0181E0888F9B8D8C8D981305C0E88983
:1006F000F989808185FD24C0F62E0B8D10E00F5FF7
:100700001F4F0F731127E02E8C8DE8120CC00FB60F
:1007100007FCFACFE889F989808185FFF5CFCE0102
:100720000E944903F1CF8B8DFE01E80FF11DE35AC2
:10073000FF4FF0820B8FEA89FB898081806207C0BE
:10074000EE89FF896083E889F989808180648083EC
:1007500081E090E0DF91CF911F910F91FF90EF909A
:100760000895CF93DF93EC01888D8823C9F0EA893F
:10077000FB89808185FD05C0A889B9898C9186FD9A
:100780000FC00FB607FCF5CF808185FFF2CFA88997
:10079000B9898C9185FFEDCFCE010E944903E7CF47
:1007A000DF91CF91089580E090E0892B29F00E949D
:1007B0003F0381110C9400000895CF93DF93EC0167
:1007C00060E08E810E94F50061E08E810E94F5005C
:1007D00060E08E810E94F5008BE891E00197F1F7CF
:1007E000DF91CF910895CF92DF92EF92FF920F9316
:1007F0001F93CF93DF937C016C0187E0C80ED11C5F
:10080000C0E0D0E0062F10E0B8010C2E02C07595B4
:1008100067950A94E2F76170F60181916F010E9479
:10082000F5002196C430D10579F7C701DF91CF914A
:100830001F910F91FF90EF90DF90CF900C94DD030C
:10084000CF92DF92EF92FF920F931F93CF93DF939C
:10085000EC01F62E642F8C810E94F5008D818F3F74
:1008600019F060E00E94F5008F850F2D10E084FFE5
:1008700025C06E0187E0C80ED11CE12CF12CB80117
:100880000E2C02C0759567950A94E2F76170F60127
:1008900081916F010E94F500FFEFEF1AFF0A88E0D7
:1008A000E816F10461F7CE01DF91CF911F910F910E
:1008B000FF90EF90DF90CF900C94DD03B80184E0BF
:1008C000759567958A95E1F7CE010E94F3036F2D28
:1008D000CE01DF91CF911F910F91FF90EF90DF90AC
:1008E000CF900C94F30341E00E94200481E090E05B
:1008F000089540E00C942004EF92FF920F931F9311
:10090000CF93DF93EC01623018F08F8588608F877A
:100910006B8B1C8A80E48D8B80E18E8B80E58F8BC6
:1009200061E08C810E9425018D818F3F19F061E08B
:100930000E94250161E08E810E9425017E0187E0F1
:10094000E80EF11C00E010E08F8584FD03C084E018
:1009500090E002C088E090E0081719074CF461E0CD
:10096000F70181917F010E9425010F5F1F4FECCF9E
:100970008BE39DE00197F1F760E08C810E94F50028
:1009800060E08E810E94F5008D818F3F19F060E05C
:100990000E94F5006F8564FD1DC063E0CE010E94DA
:1009A000F3030BE416E4C8010197F1F763E0CE010D
:1009B0000E94F303C8010197F1F763E0CE010E94A2
:1009C000F30383E592E00197F1F762E0CE010E9424
:1009D000F30316C06062CE010E9479048BE496E4B2
:1009E0000197F1F76F856062CE010E94790483E57B
:1009F00092E00197F1F76F856062CE010E94790461
:100A00006F856062CE010E94790484E0888B6CE07F
:100A1000CE010E94790461E0CE010E9479048BE34B
:100A20009FE10197F1F782E0898B66E0CE01DF91CB
:100A3000CF911F910F91FF90EF900C947904843027
:100A400008F083E090917F02891710F08FEF890FF3
:100A5000E82FF0E0E459FD4F648960688CE692E08D
:100A60000C947904CF93DF9381E00E941F05C0E1CD
:100A7000D0E0E0916C02F0916D020190F081E02DE8
:100A800060E28CE692E00995219799F7DF91CF918A
:100A90000895089580E090E008956115710579F05A
:100AA000FB0101900020E9F73197AF01461B570B7E
:100AB000DC01ED91FC910280F381E02D099480E04E
:100AC00090E008954F925F926F927F92EF92FF9223
:100AD0000F931F93CF93DF93CDB7DEB7A1970FB6D8
:100AE000F894DEBF0FBECDBF7C01FA01CB0119A285
:100AF000223008F42AE08E010F5D1F4F422E512C48
:100B0000612C712CBF01A30192010E940C11F9010B
:100B1000CA01015011096A3014F4605D01C0695CBA
:100B2000D8016C93232B242B252B61F7B801C70127
:100B30000E944D05A1960FB6F894DEBF0FBECDBF43
:100B4000DF91CF911F910F91FF90EF907F906F9069
:100B50005F904F9008950C944D054F925F926F9265
:100B60007F928F929F92AF92BF92CF92DF92EF923D
:100B7000FF92CF93DF93EC01FB01B480C080D18062
:100B8000E280F380A7019601C701B6010E94F2102E
:100B9000882319F062E371E01AC026013701E89456
:100BA00077F82FEF3FEF4FE75FE7C301B2010E94F5
:100BB000F210811110C02FEF3FEF4FE75FE7C30145
:100BC000B2010E94E20E181634F466E371E0CE0121
:100BD0000E944D057FC02FEF3FEF4FE75FE4C70155
:100BE000B6010E943A1018161CF46AE371E0EFCFC8
:100BF0002FEF3FEF4FE75FECC701B6010E94E20E17
:100C000087FDF3CF20E030E0A901C701B6010E94C3
:100C1000E20E87FF08C06DE2CE010E94C902F7FA1A
:100C2000F094F7F8F094A12C60E070E080E09FE38E
:100C3000AB1440F420E030E040E251E40E94E70EC3
:100C4000A394F6CF9B01AC01C701B6010E94760EBA
:100C50002B013C010E94590F6B017C010E94880FFF
:100C60009B01AC01C301B2010E94750E2B013C0136
:100C70002AE0B701A601CE010E946205BB2021F047
:100C80006EE2CE010E94C902FB2CFF2019F120E088
:100C900030E040E251E4C301B2010E943F102B0159
:100CA0003C010E94590F4B01A12CB12C2AE0B50147
:100CB000A401CE010E946205C501B4010E94880F03
:100CC0009B01AC01C301B2010E94750E2B013C01D6
:100CD000FA94DBCFCE01DF91CF91FF90EF90DF90C0
:100CE000CF90BF90AF909F908F907F906F905F90CC
:100CF0004F9008950E9434112F923F924F925F922D
:100D00006F927F928F929F92AF92BF92CF92DF921B
:100D1000EF92FF920F931F93CF93DF93CDB7DEB780
:100D20006D970FB6F894DEBF0FBECDBF1091AE0128
:100D30000E94CC01882309F450C0809160028B305E
:100D400008F44BC08D30C8F08551823008F045C0A2
:100D500000915C02602F6F7770E0762F662780919C
:100D60005D02682B80E090E00E94880F2DEC3CEC47
:100D70004CEC5DE30E943F101FC000915C02602FAD
:100D800070E080E090E00E94880F6B017C01809110
:100D90005D028F70682F70E080E090E00E948A0F03
:100DA0002DEC3CEC4CEC5DE30E943F109B01AC0150
:100DB000C701B6010E94760E07FD9058112389F0F5
:100DC00026E636E646EE5FE30E943F1020E030E084
:100DD00040E052E40E94760E04C060E070E080ECD7
:100DE0009FE76093AA017093AB018093AC0190934D
:100DF000AD010E94CC018823F1F1809160028B301B
:100E0000D0F18D30B0F085518230A8F560915A0252
:100E100070E0762F662780915B02682B80E090E07F
:100E20000E94880F2DEC3CEC4CEC5DE30E943F10DF
:100E30001DC060915A0270E080E090E00E948A0F2D
:100E40006B017C0180915B02682F70E080E090E094
:100E50000E948A0F2DEC3CEC4CEC5DE30E943F10AD
:100E60009B01AC01C701B6010E94760E162F072F19
:100E7000F82EE92E06C010E000E040ECF42E5FE70B
:100E8000E52E812F902FAF2DBE2D8093A60190933C
:100E9000A701A093A801B093A9018091AE018D8F05
:100EA0008091AA018B8F8091AB018C8F2090AC0137
:100EB0003090AD018D8D811114C026E636E646EEE8
:100EC0005FE36B8D7C8DC1010E943F1020E030E01C
:100ED00040E052E40E94760E462E772E682E592E60
:100EE00004C04B8C7C8C622C532C20E030E044E717
:100EF00052E4642D772D862D952D0E94760E4B01A0
:100F00005C0120E030E048E852E4642D772D862D26
:100F1000952D0E94750E2AE939E949E95FE30E949F
:100F20003F109B01AC01C501B4010E94760E4B013C
:100F30005C0122E133E840EC5DE3612F702F8F2DDF
:100F40009E2D0E943F109B01AC01C501B4010E947F
:100F5000760E20E030E040E05FE30E943F10D62EA6
:100F6000C72EB82EA92E20E030E04EE952E40E94B0
:100F70003A1018160CF0ADC1242D372D462D552DE5
:100F8000642D772D862D952D0E943F104B015C011D
:100F9000212F302F4F2D5E2D612F702F8F2D9E2DE5
:100FA0000E943F106F8B788F898F9A8F21E133E2F7
:100FB00043E050E4642D772D862D952D0E943F103F
:100FC00029E134E849E252E40E94750E6B8B7C8B78
:100FD0008D8B9E8B26E13BE442E251E4612F702F22
:100FE0008F2D9E2D0E943F109B01AC016B897C8947
:100FF0008D899E890E94760E6B8B7C8B8D8B9E8B50
:1010000028E436E246E65EEB642D772D862D952D9D
:101010000E943F10212F302F4F2D5E2D0E943F1038
:101020009B01AC016B897C898D899E890E94760E1B
:101030006B8B7C8B8D8B9E8B20EE3FE040EE5BEBD1
:10104000C501B4010E943F109B01AC016B897C89F2
:101050008D899E890E94760E6B8B7C8B8D8B9E8BEF
:1010600028EF37E840E65DEB6F89788D898D9A8DA2
:101070000E943F109B01AC016B897C898D899E8900
:101080000E94760E6B8B7C8B8D8B9E8B2CEA3DE0C9
:1010900041EA5AE3C501B4010E943F10212F302FCD
:1010A0004F2D5E2D0E943F109B01AC016B897C8906
:1010B0008D899E890E94760E6B8B7C8B8D8B9E8B8F
:1010C00028EC3FE84FE55AE3642D772D862D952DCA
:1010D0000E943F102F89388D498D5A8D0E943F10F4
:1010E0009B01AC016B897C898D899E890E94760E5B
:1010F0006B8B7C8B8D8B9E8B21EF3BE845E056EB19
:10110000C501B4010E943F102F89388D498D5A8D39
:101110000E943F109B01AC016B897C898D899E895F
:101120000E94760ED62EC72EB82EA92E20E030E0D3
:1011300040E551E4612F702F8F2D9E2D0E94E20E0D
:1011400087FF6AC020E030E040EA52E4642D772D4A
:10115000862D952D0E943A1087FD5EC020E030E07C
:1011600040EE52E4642D772D862D952D0E94E20EDF
:1011700018160CF449C2212F302F4F2D5E2D60E040
:1011800070E080E591E40E94750E20E030E040E8D8
:101190005EE30E943F106F8B788F898F9A8F20E0DB
:1011A00030E04EEB52E4642D772D862D952D0E9474
:1011B000750E2B013C0120E030E0A9010E943A109D
:1011C00018164CF4A301920160E070E088E891E405
:1011D0000E94750E08C020E030E048E851E4C301E9
:1011E000B2010E94760E2EE33DEE40E75DE30E94E1
:1011F0003F100E94B2109B01AC016F89788D898DE0
:101200009A8D0E943F109B01AC016D2D7C2D8B2D82
:101210009A2D0E94750E59C020E030E04AEA52E44F
:10122000612F702F8F2D9E2D0E943A1018160CF0F2
:1012300050C020E030E040EA52E4642D772D862D46
:10124000952D0E943A1087FD44C020E030E04EEA20
:1012500052E4642D772D862D952D0E94E20E1816EE
:10126000C4F120E030E04AEA52E4612F702F8F2D64
:101270009E2D0E94750E2DEC3CEC4CEC5DE30E9423
:101280003F106F8B788F898F9A8F242D372D462DA5
:10129000552D60E070E08EEA92E40E94750E2DEC10
:1012A0003CEC4CE45EE30E943F109B01AC016F8973
:1012B000788D898D9A8D0E943F109B01AC016D2D18
:1012C0007C2D8B2D9A2D0E94760ED62EC72EB82EF1
:1012D000A92E8D8D811113C020E030E040E052E452
:1012E0006D2D7C2D8B2D9A2D0E94750E26E838E3EE
:1012F0004EE05FE30E943F10D62EC72E02C08B2D1A
:101300009A2D4D2D5C2DBC014093A2015093A30159
:101310006093A4017093A501A0900C01B0900D0101
:10132000C0900E01D0900F019501A6016B8D7C8DB0
:10133000C1010E943A1018161CF4AB8CBC8C6101E0
:10134000C501D60180930C0190930D01A0930E016D
:10135000B0930F01A0900801B0900901C0900A015C
:10136000D0900B019501A6016B8D7C8DC1010E946F
:10137000E20E87FF03C0AB8CBC8C6101C501D601B6
:101380008093080190930901A0930A01B0930B0187
:10139000A0900401B0900501C0900601D090070113
:1013A0009501A601612F702F8F2D9E2D0E943A105E
:1013B000181624F4A12EB02ECF2CDE2CC501D60198
:1013C0008093040190930501A0930601B093070157
:1013D000A0900001B0900101C0900201D0900301E3
:1013E0009501A601612F702F8F2D9E2D0E94E20E78
:1013F00087FF04C0A12EB02ECF2CDE2CC501D60154
:101400008093000190930101A0930201B093030126
:1014100080E00E941F058091A6019091A701A091F4
:10142000A801B091A9018F839887A987BA8782E024
:1014300090E09C878B878091AE01811105C031E4DB
:10144000E32E31E0F32E04C02EE3E22E21E0F22E53
:101450008091AA019091AB01A091AC01B091AD0136
:1014600089839A83AB83BC8382E090E09E838D83E3
:10147000BE016F5F7F4F8CE692E00E94AD058C014C
:101480006FED0E94C902B701C8010E94AB05BE0101
:10149000695F7F4FC8010E94AD0564E471E00E945E
:1014A000AB0581E00E941F058091AE01811105C04E
:1014B00091E4E92E91E0F92E04C08EE3E82E81E05C
:1014C000F82E8091A2019091A301A091A401B09166
:1014D000A50189839A83AB83BC831E821D8260E74A
:1014E00071E08CE692E00E94AB05BE016F5F7F4F1A
:1014F0008CE692E00E94AD058C016FED0E94C9025E
:10150000B701C8010E94AB058091A2019091A3018F
:10151000A091A401B091A5018D879E87AF87B88B5C
:1015200082E090E09A8B898B4091A6015091A701AF
:101530006091A8017091A9014F83588769877A87C4
:101540009C878B874091AA015091AB016091AC01BF
:101550007091AD0149835A836B837C839E838D8315
:1015600069E471E08DEB91E00E94AB05BE016F5F15
:101570007F4F8DEB91E00E94AD058C0167E571E036
:101580000E94AB05BE01695F7F4FC8010E94AD0597
:101590008C016CE671E00E94AB05BE01635F7F4F7A
:1015A000C8010E94AD058C016DE771E00E94AB059A
:1015B00066E871E0C8010E944D058DEB91E00E9444
:1015C000B1030E94C0016093B0017093B101809398
:1015D000B2019093B3016D960FB6F894DEBF0FBEC3
:1015E000CDBFDF91CF911F910F91FF90EF90DF90D2
:1015F000CF90BF90AF909F908F907F906F905F90B3
:101600004F903F902F90089520E030E04AEA52E456
:10161000612F702F8F2D9E2D0E943A1018160CF4FA
:1016200014CE57CE1F920F920FB60F9211242F9304
:101630003F938F939F93AF93BF938091B501909108
:10164000B601A091B701B091B8013091B40123E087
:10165000230F2D3720F40196A11DB11D05C026E8EA
:10166000230F0296A11DB11D2093B4018093B501F3
:101670009093B601A093B701B093B8018091B901DE
:101680009091BA01A091BB01B091BC010196A11D3E
:10169000B11D8093B9019093BA01A093BB01B0939F
:1016A000BC01BF91AF919F918F913F912F910F906E
:1016B0000FBE0F901F9018951F920F920FB60F92AA
:1016C00011242F933F934F935F936F937F938F9347
:1016D0009F93AF93BF93EF93FF93E0911201F0912B
:1016E00013010995FF91EF91BF91AF919F918F9158
:1016F0007F916F915F914F913F912F910F900FBE0E
:101700000F901F9018951F920F920FB60F921124F1
:101710002F933F934F935F936F937F938F939F93F9
:10172000AF93BF93EF93FF93E0911001F0911101FC
:101730000995FF91EF91BF91AF919F918F917F910B
:101740006F915F914F913F912F910F900FBE0F902E
:101750001F9018951F920F920FB60F9211242F937E
:101760003F934F935F936F937F938F939F93AF9329
:10177000BF93EF93FF938DEB91E00E944903FF919C
:10178000EF91BF91AF919F918F917F916F915F91F9
:101790004F913F912F910F900FBE0F901F90189572
:1017A0001F920F920FB60F9211242F938F939F9336
:1017B000EF93FF93E091CD01F091CE018081E09114
:1017C000D301F091D40182FD12C090818091D601A5
:1017D0008F5F8F732091D701821751F0E091D6016E
:1017E000F0E0E354FE4F958F8093D60101C08081D5
:1017F000FF91EF919F918F912F910F900FBE0F90BE
:101800001F901895EDEBF1E01382128288EE93E0C1
:10181000A0E0B0E084839583A683B78388E191E05C
:101820009183808385EC90E09587848784EC90E0B9
:101830009787868780EC90E0918B808B81EC90E09D
:10184000938B828B82EC90E0958B848B86EC90E07E
:10185000978B868B118E128E138E148EAAE5B2E0B2
:1018600086E015968C93159786E116968C931697BD
:10187000E4EBF0E0E4911796EC931797E0EAF0E0E0
:10188000E4911896EC93189740E85EE360E070E00E
:101890001D964D935D936D937C935097ECE6F2E02B
:1018A000138212828AE291E0918380838CE08483A8
:1018B0008FEF85838BE0868385E0878384E0808754
:1018C00083E0818787E082871386148615861686D3
:1018D000178661E0CF010C947C04CF93DF93CDB7E2
:1018E000DEB72C970FB6F894DEBF0FBECDBF78944D
:1018F00084B5826084BD84B5816084BD85B5826015
:1019000085BD85B5816085BD80916E0081608093C5
:101910006E0010928100809181008260809381002E
:10192000809181008160809381008091800081603E
:10193000809380008091B10084608093B100809199
:10194000B00081608093B00080917A0084608093C1
:101950007A0080917A00826080937A0080917A0088
:10196000816080937A0080917A00806880937A0009
:101970001092C10062E088E00E94250162E082E0EE
:101980000E9425018BEF92E090931101809310014A
:10199000809169008C7F826080936900E89A62E0A0
:1019A0008CE692E00E947C0469E871E08CE692E0AB
:1019B0000E94AB05E091CD01F091CE0182E08083E1
:1019C000E091C901F091CA011082E091CB01F09140
:1019D000CC018FEC80831092D501E091D101F09180
:1019E000D20186E08083E091CF01F091D001808127
:1019F00080618083E091CF01F091D0018081886087
:101A00008083E091CF01F091D00180818068808354
:101A1000E091CF01F091D00180818F7D808368EBD0
:101A20007BE080E090E00E9486010E947C060E949C
:101A3000C0016093B0017093B1018093B2019093A3
:101A4000B30102E010E054E8E52E50E0F52E66EB1D
:101A5000C62E60E0D62E72EAA72E70E0B72E0E9446
:101A6000C0014090B0015090B1016090B2017090FF
:101A7000B301DC01CB0184199509A609B7098136A8
:101A80009A4EA105B10510F00E947C068091AF012D
:101A9000882309F495C00E947C060E94320581E0EB
:101AA0000E941F058091AE01811105C041E4642EA2
:101AB00041E0742E04C03EE3632E31E0732E80912A
:101AC0000C0190910D01A0910E01B0910F018F8337
:101AD0009887A987BA871C870B8780910801909106
:101AE0000901A0910A01B0910B0189839A83AB830C
:101AF000BC831E830D83BE016F5F7F4F8CE692E037
:101B00000E94AD054C016AE971E00E94AB05BE017F
:101B1000695F7F4FC4010E94AD054C016FED0E94CB
:101B2000C902B301C4010E94AB0560ED77E080E01B
:101B300090E00E9486010E94320581E00E941F050C
:101B40008091040190910501A0910601B0910701D7
:101B50008F839887A987BA871C870B87809100019C
:101B600090910101A0910201B091030189839A83B0
:101B7000AB83BC831E830D83BE016F5F7F4F8CE6FA
:101B800092E00E94AD054C016AE971E00E94AB054C
:101B9000BE01695F7F4FC4010E94AD056FE971E02E
:101BA0000E94AB0560ED77E080E090E00E94860146
:101BB0009091AF0181E089278093AF010E947C065C
:101BC000F7018491F6018490F5019490992081F0B9
:101BD00081110E94CC00892D90E0880F991F8057B9
:101BE0009F4FFC01A591B4918C91882209F049C0C6
:101BF00068EE73E080E090E00E9486019090AE0174
:101C0000992009F441C020E030E040E052E46091C6
:101C10000C0170910D0180910E0190910F010E94B5
:101C2000750E26E838E34EE05FE30E943F106093B4
:101C30000C0170930D0180930E0190930F0120E031
:101C400030E040E052E46091080170910901809118
:101C50000A0190910B010E94750E26E838E34EE0D0
:101C60005FE30E943F106093080170930901809325
:101C70000A0190930B0181E089258093AE010E94B7
:101C80007C060E94D303EBCE26E636E646EE5FE303
:101C900060910C0170910D0180910E0190910F01E6
:101CA0000E943F1020E030E040E052E40E94760EB7
:101CB00060930C0170930D0180930E0190930F01BE
:101CC00026E636E646EE5FE3609108017091090171
:101CD00080910A0190910B010E943F1020E030E0BA
:101CE00040E052E40E94760EBECF5058BB27AA2790
:101CF0000E948D0E0C9400100E94F20F38F00E948A
:101D0000F90F20F039F49F3F19F426F40C94EF0FEB
:101D10000EF4E095E7FB0C94E90FE92F0E941110F7
:101D200058F3BA17620773078407950720F079F410
:101D3000A6F50C9433100EF4E0950B2EBA2FA02DBF
:101D40000B01B90190010C01CA01A0011124FF2768
:101D5000591B99F0593F50F4503E68F11A16F04063
:101D6000A22F232F342F4427585FF3CF4695379562
:101D70002795A795F0405395C9F77EF41F16BA0B27
:101D8000620B730B840BBAF09150A1F0FF0FBB1FD5
:101D9000661F771F881FC2F70EC0BA0F621F731F1E
:101DA000841F48F4879577956795B795F7959E3F7B
:101DB00008F0B0CF9395880F08F09927EE0F97950C
:101DC000879508950E94C50F08F481E008950E9448
:101DD000FB0E0C9400100E94F90F58F00E94F20FB5
:101DE00040F029F45F3F29F00C94E90F51110C9455
:101DF00034100C94EF0F0E94111068F39923B1F383
:101E0000552391F3951B550BBB27AA276217730720
:101E1000840738F09F5F5F4F220F331F441FAA1FB4
:101E2000A9F335D00E2E3AF0E0E832D09150504070
:101E3000E695001CCAF72BD0FE2F29D0660F771F1E
:101E4000881FBB1F261737074807AB07B0E809F004
:101E5000BB0B802DBF01FF2793585F4F3AF09E3F89
:101E6000510578F00C94E90F0C9434105F3FE4F3C3
:101E7000983ED4F3869577956795B795F7959F5FCC
:101E8000C9F7880F911D9695879597F90895E1E018
:101E9000660F771F881FBB1F621773078407BA0777
:101EA00020F0621B730B840BBA0BEE1F88F7E095D2
:101EB00008950E94191088F09F5798F0B92F99271C
:101EC000B751B0F0E1F0660F771F881F991F1AF025
:101ED000BA95C9F714C0B13091F00E943310B1E047
:101EE00008950C943310672F782F8827B85F39F046
:101EF000B93FCCF3869577956795B395D9F73EF4BE
:101F000090958095709561957F4F8F4F9F4F089565
:101F1000E89409C097FB3EF4909580957095619583
:101F20007F4F8F4F9F4F9923A9F0F92F96E9BB2739
:101F30009395F695879577956795B795F111F8CFB5
:101F4000FAF4BB0F11F460FF1BC06F5F7F4F8F4F20
:101F50009F4F16C0882311F096E911C0772321F016
:101F60009EE8872F762F05C0662371F096E8862FAE
:101F700070E060E02AF09A95660F771F881FDAF705
:101F8000880F9695879597F90895990F0008550F32
:101F9000AA0BE0E8FEEF16161706E807F907C0F0EF
:101FA00012161306E407F50798F0621B730B840BF7
:101FB000950B39F40A2661F0232B242B252B21F4D1
:101FC00008950A2609F4A140A6958FEF811D811D71
:101FD000089597F99F6780E870E060E008959FEFAB
:101FE00080EC089500240A941616170618060906B0
:101FF000089500240A94121613061406050608957F
:10200000092E0394000C11F4882352F0BB0F40F406
:10201000BF2B11F460FF04C06F5F7F4F8F4F9F4F46
:10202000089557FD9058440F551F59F05F3F71F0C8
:102030004795880F97FB991F61F09F3F79F087952F
:102040000895121613061406551FF2CF4695F1DFB8
:1020500008C0161617061806991FF1CF8695710548
:10206000610508940895E894BB2766277727CB017C
:1020700097F908950E94C50F08F48FEF08950E9404
:1020800052100C9400100E94F20F38F00E94F90FC9
:1020900020F0952311F00C94E90F0C94EF0F11240C
:1020A0000C9434100E94111070F3959FC1F3950F9A
:1020B00050E0551F629FF001729FBB27F00DB11DCC
:1020C000639FAA27F00DB11DAA1F649F6627B00D5C
:1020D000A11D661F829F2227B00DA11D621F739F45
:1020E000B00DA11D621F839FA00D611D221F749F53
:1020F0003327A00D611D231F849F600D211D822F9A
:10210000762F6A2F11249F5750409AF0F1F08823C0
:102110004AF0EE0FFF1FBB1F661F771F881F9150ED
:102120005040A9F79E3F510580F00C94E90F0C94A4
:1021300034105F3FE4F3983ED4F386957795679526
:10214000B795F795E7959F5FC1F7FE2B880F911D17
:102150009695879597F9089519F416F40C94EF0F56
:102160000C94F7100E941910B8F39923C9F3B6F331
:102170009F57550B87FF0E9405110024A0E640EAF7
:10218000900180585695979528F4805C660F771FCC
:10219000881F20F026173707480730F4621B730B9F
:1021A000840B202931294A2BA695179407942025C2
:1021B00031254A2758F7660F771F881F20F026170A
:1021C0003707480730F4620B730B840B200D311D69
:1021D000411DA09581F7B901842F9158880F9695DC
:1021E000879508950E94C50F880B990B08959F3F0E
:1021F00031F0915020F4879577956795B795880FC2
:10220000911D9695879597F9089591505040660FC6
:10221000771F881FD2F70895A1E21A2EAA1BBB1BB5
:10222000FD010DC0AA1FBB1FEE1FFF1FA217B307A2
:10223000E407F50720F0A21BB30BE40BF50B661FB8
:10224000771F881F991F1A9469F76095709580957C
:1022500090959B01AC01BD01CF010895EE0FFF1FCA
:102260000590F491E02D099481E090E0F8940C94AD
:062270003911F894FFCFC4
:10227600003C1C46003C1CC6003C1C46003C1CC6E0
:10228600C802C802000000006A03D0020203B103BC
:10229600330311032503000000007304D0024A052E
:1022A60049056E616E00696E66006F7666004620AF
:1022B60000432000252020200054656D7065726162
:1022C600747572653A20002043656C736975732CCA
:1022D6002048756D69646974793A200020252C20A0
:1022E6004865617420496E6465783A20002043652C
:1022F6006C73697573000D0A005745415448455281
:102306002053544154494F4E2100202D3E20002099
:022316002500A0
:00000001FF
