:100000000C945D000C9485000C9485000C94850084
:100010000C9485000C9485000C9485000C9485004C
:100020000C9485000C9485000C9485000C9485003C
:100030000C9485000C9485000C9485000C9485002C
:100040000C949A020C9485000C940A030C94E4021C
:100050000C9485000C9485000C9485000C9485000C
:100060000C9485000C94850000000008000201003B
:100070000003040700000000000000000000000072
:10008000250028002B0000000000240027002A0083
:10009000040404040404040402020202020203032E
:1000A0000303030301020408102040800102040836
:1000B00010200102040810203C0311241FBECFEFC2
:1000C000D8E0DEBFCDBF11E0A0E0B1E0ECE8F9E0A0
:1000D00002C005900D92AE31B107D9F721E0AEE133
:1000E000B1E001C01D92AE3EB207E1F710E0CDE5F0
:1000F000D0E004C02197FE010E94B904CC35D1079D
:10010000C9F70E9473040C94C4040C94000090E09E
:10011000FC01EC55FF4F2491FC01E057FF4F849107
:10012000882399F090E0880F991FFC01EA57FF4F50
:10013000A591B491FC01E458FF4F859194918FB73C
:10014000F894EC91E22BEC938FBF089590E0FC01C2
:10015000E859FF4F3491FC01EC55FF4F2491FC010D
:10016000E057FF4FE491EE2309F43BC0332339F10C
:10017000333091F038F43130A9F0323001F584B5E4
:100180008F7D12C0373091F03830A1F03430B9F49F
:10019000809180008F7D03C0809180008F77809355
:1001A00080000DC084B58F7784BD09C08091B000F8
:1001B0008F7703C08091B0008F7D8093B000F0E016
:1001C000EE0FFF1FE458FF4FA591B4918FB7F8943D
:1001D000EC91611103C020952E2301C02E2B2C938E
:1001E0008FBF0895CF92DF92EF92FF920F931F93EC
:1001F000CF93DF936C017A018B01C0E0D0E0CE1584
:10020000DF0589F0D8016D918D01D601ED91FC914A
:100210000190F081E02DC6010995892B11F47E0132
:1002200002C02196ECCFC701DF91CF911F910F91B2
:10023000FF90EF90DF90CF900895FC01538D448D97
:10024000252F30E0842F90E0821B930B541710F081
:10025000CF96089501970895FC01918D828D98178E
:1002600061F0828DDF01A80FB11D5D968C91928D9A
:100270009F5F9F73928F90E008958FEF9FEF089597
:10028000FC01918D828D981731F0828DE80FF11D60
:10029000858D90E008958FEF9FEF0895FC01918D7B
:1002A000228D892F90E0805C9F4F821B91098F7374
:1002B0009927089587E291E00E944E0121E0892B61
:1002C00009F420E0822F0895FC01848DDF01A80F3E
:1002D000B11DA35ABF4F2C91848D90E001968F736E
:1002E0009927848FA689B7892C93A089B1898C918D
:1002F00080648C93938D848D981306C00288F38953
:10030000E02D80818F7D80830895EF92FF920F937F
:100310001F93CF93DF93EC0181E0888F9B8D8C8DB1
:10032000981305C0E889F989808185FD24C0F62EDF
:100330000B8D10E00F5F1F4F0F731127E02E8C8D78
:10034000E8120CC00FB607FCFACFE889F989808162
:1003500085FFF5CFCE010E946401F1CF8B8DFE01A8
:10036000E80FF11DE35AFF4FF0820B8FEA89FB89FA
:100370008081806207C0EE89FF896083E889F989FE
:1003800080818064808381E090E0DF91CF911F9134
:100390000F91FF90EF900895CF93DF93EC01888D3C
:1003A0008823C9F0EA89FB89808185FD05C0A88979
:1003B000B9898C9186FD0FC00FB607FCF5CF8081FF
:1003C00085FFF2CFA889B9898C9185FFEDCFCE0149
:1003D0000E946401E7CFDF91CF91089580E090E023
:1003E000892B29F00E945A0181110C940000089574
:1003F000CF93DF93EC0160E08E810E94A60061E064
:100400008E810E94A60060E08E810E94A6008BE88B
:1004100091E00197F1F7DF91CF910895CF92DF92AC
:10042000EF92FF920F931F93CF93DF937C016C01A8
:1004300087E0C80ED11CC0E0D0E0062F10E0B80164
:100440000C2E02C0759567950A94E2F76170F6016B
:1004500081916F010E94A6002196C430D10579F7E1
:10046000C701DF91CF911F910F91FF90EF90DF9027
:10047000CF900C94F801CF92DF92EF92FF920F93FE
:100480001F93CF93DF93EC01F62E642F8C810E9493
:10049000A6008D818F3F19F060E00E94A6008F8535
:1004A0000F2D10E084FF25C06E0187E0C80ED11C1F
:1004B000E12CF12CB8010E2C02C0759567950A94B9
:1004C000E2F76170F60181916F010E94A600FFEFD3
:1004D000EF1AFF0A88E0E816F10461F7CE01DF9118
:1004E000CF911F910F91FF90EF90DF90CF900C94E0
:1004F000F801B80184E0759567958A95E1F7CE011A
:100500000E940E026F2DCE01DF91CF911F910F91AE
:10051000FF90EF90DF90CF900C940E0241E00E948C
:100520003B0281E090E00895089580E090E0089516
:100530000E94BF041F920F920FB60F9211242F93A7
:100540003F938F939F93AF93BF938091230190919B
:100550002401A0912501B09126013091220123E0D0
:10056000230F2D3720F40196A11DB11D05C026E8EB
:10057000230F0296A11DB11D209322018093230118
:1005800090932401A0932501B093260180911E0130
:1005900090911F01A0912001B09121010196A11D10
:1005A000B11D80931E0190931F01A0932001B09371
:1005B0002101BF91AF919F918F913F912F910F900A
:1005C0000FBE0F901F9018951F920F920FB60F92AB
:1005D00011242F933F934F935F936F937F938F9348
:1005E0009F93AF93BF93EF93FF9387E291E00E94B5
:1005F0006401FF91EF91BF91AF919F918F917F9196
:100600006F915F914F913F912F910F900FBE0F907F
:100610001F9018951F920F920FB60F9211242F93CF
:100620008F939F93EF93FF93E0913701F0913801FF
:100630008081E0913D01F0913E0182FD12C09081E8
:10064000809140018F5F8F7320914101821751F09B
:10065000E0914001F0E0E95DFE4F958F809340010D
:1006600001C08081FF91EF919F918F912F910F9009
:100670000FBE0F901F901895CF93DF9310922A0111
:100680001092290188EE93E0A0E0B0E080932B0166
:1006900090932C01A0932D01B0932E0184E091E062
:1006A000909328018093270185EC90E0909334018A
:1006B0008093330184EC90E0909336018093350170
:1006C00080EC90E0909338018093370181EC90E0CA
:1006D00090933A018093390182EC90E090933C0131
:1006E00080933B0186EC90E090933E0180933D0126
:1006F0001092400110924101109242011092430168
:1007000086E08093C90186E18093CA01EAEAF0E0BD
:10071000E491E093CB01E6E9F0E0E491E093CC01D1
:1007200080E89EE3A0E0B0E08093D1019093D201F5
:10073000A093D301B093D4011092D9011092D801A3
:1007400086E191E09093D7018093D6018CE080936D
:10075000DA018FEF8093DB018BE08093DC0185E091
:100760008093DD0184E08093DE0183E08093DF01EC
:1007700087E08093E0011092E1011092E201109273
:10078000E3011092E4011092E50181E08093E90118
:100790001092EA0180E48093EB0180E18093EC0108
:1007A00080E58093ED018CE00E9487008091DB0161
:1007B0008F3F11F00E9487008091DC010E9487002A
:1007C000C0E0D0E08091E50184FD03C084E090E0CA
:1007D00002C088E090E0C817D90744F4FE01EA524D
:1007E000FE4F87810E9487002196ECCF8BE39DE02E
:1007F0000197F1F760E08091DA010E94A60060E0C5
:100800008091DC010E94A6008091DB018F3F19F0EE
:1008100060E00E94A6006091E50164FD20C063E0F5
:1008200086ED91E00E940E02CBE4D6E4CE01019762
:10083000F1F763E086ED91E00E940E022197F1F757
:1008400063E086ED91E00E940E0283E592E001975D
:10085000F1F762E086ED91E00E940E021EC0606238
:1008600040E086ED91E00E943B028BE496E4019724
:10087000F1F76091E501606240E086ED91E00E9451
:100880003B0283E592E00197F1F76091E501606238
:1008900040E086ED91E00E943B026091E5016062DC
:1008A00040E086ED91E00E943B0284E08093E60107
:1008B00040E06CE086ED91E00E943B0240E061E0A8
:1008C00086ED91E00E943B028BE39FE10197F1F7F7
:1008D00082E08093E70140E066E086ED91E0DF9101
:1008E000CF910C943B02789484B5826084BD84B52A
:1008F000816084BD85B5826085BD85B5816085BD1B
:1009000080916E00816080936E00109281008091D2
:10091000810082608093810080918100816080935A
:100920008100809180008160809380008091B1007F
:1009300084608093B1008091B00081608093B000AA
:1009400080917A00846080937A0080917A0082603E
:1009500080937A0080917A00816080937A00809100
:100960007A00806880937A001092C1000E94EE01A4
:10097000FDCFEE0FFF1F0590F491E02D099481E06B
:0C09800090E0F8940C94C404F894FFCFAD
:10098C00000000008501F2001D01CC014E012C017C
:0E099C004001000000008E02F200950294025D
:00000001FF
