:100000000C9462000C943C040C9415040C948A002B
:100010000C948A000C948A000C948A000C948A0038
:100020000C948A000C948A000C948A000C948A0028
:100030000C948A000C948A000C948A000C948A0018
:100040000C94CB030C948A000C949B050C940B0528
:100050000C948A000C948A000C948A000C948A00F8
:100060000C948A000C948A000000000024002700F1
:100070002A0000000000250028002B0000000008D6
:10008000000201000003040700000000000000005F
:1000900000000000230026002900040404040404D6
:1000A0000404020202020202030303030303010227
:1000B00004081020408001020408102001020408F6
:1000C0001020F20B11241FBECFEFD8E0DEBFCDBF52
:1000D00011E0A0E0B1E0E0E7F2E202C005900D928D
:1000E000A838B107D9F722E0A8E8B1E001C01D9215
:1000F000AB36B207E1F710E0C2E6D0E004C02197CA
:10010000FE010E942B11C136D107C9F70E945D0C78
:100110000C9436110C940000CF92DF92EF92FF9274
:10012000CF93DF93B0913702882311F0AB2F01C03A
:10013000A0E08091380290E0880F991F80579F4F70
:10014000C0903D02D0903E02E0903F02F09040020D
:1001500020E030E0FC01C591D491E881EB23A901B6
:1001600060E070E0EA130CC02F5F3F4F4C155D0557
:100170006E057F0578F33FEF2FEF8FEF9FEF03C002
:10018000322F252FCB01632F722FDF91CF91FF905C
:10019000EF90DF90CF900895833081F028F4813084
:1001A00099F08230A1F008958730A9F08830B9F035
:1001B0008430D1F4809180008F7D03C080918000D5
:1001C0008F7780938000089584B58F7702C084B5BF
:1001D0008F7D84BD08958091B0008F7703C080919A
:1001E000B0008F7D8093B0000895CF93DF9390E0AF
:1001F000FC01E255FF4F2491FC01E656FF4F84912C
:10020000882361F190E0880F991FFC01E859FF4FA6
:10021000C591D491FC01EE58FF4FA591B4916111A5
:1002200009C09FB7F8948881209582238883EC9138
:100230002E230BC0623061F49FB7F8943881822F6F
:10024000809583238883EC912E2B2C939FBF06C02F
:100250008FB7F894E8812E2B28838FBFDF91CF9141
:1002600008953FB7F89480915F0290916002A09149
:100270006102B091620226B5A89B05C02F3F19F01C
:100280000196A11DB11D3FBFBA2FA92F982F882716
:10029000820F911DA11DB11DBC01CD0142E0660F71
:1002A000771F881F991F4A95D1F708958F929F92C3
:1002B000AF92BF92CF92DF92EF92FF926B017C01DF
:1002C0000E9431014B015C01C114D104E104F1042D
:1002D000F1F00E943101DC01CB0188199909AA09CA
:1002E000BB09883E9340A105B10570F321E0C21A15
:1002F000D108E108F10888EE880E83E0981EA11C61
:10030000B11CC114D104E104F10419F7DDCFFF9051
:10031000EF90DF90CF90BF90AF909F908F90089517
:100320000895CF92DF92EF92FF920F931F93CF9396
:10033000DF936C017A018B01C0E0D0E0CE15DF05C0
:1003400089F0D8016D918D01D601ED91FC9101905C
:10035000F081E02DC6010995892B11F47E0102C0C0
:100360002196ECCFC701DF91CF911F910F91FF90A4
:10037000EF90DF90CF90089583E991E00E946205AD
:1003800021E0892B09F420E0822F0895843008F0C1
:1003900083E090915502891710F08FEF890FE82FB5
:1003A000F0E0EE5BFD4F6489606882E492E00C94BB
:1003B000DD06CF93DF9381E00E94C601C0E1D0E06B
:1003C000E0914202F09143020190F081E02D60E261
:1003D00082E492E00995219799F7DF91CF910895F2
:1003E0001F93CF93DF93282F30E0F901E458FF4F9C
:1003F0008491F901E255FF4FD491F901E656FF4F80
:10040000C491CC23C9F0162F81110E94CC00EC2F8F
:10041000F0E0EE0FFF1FEE58FF4FA591B4918FB79C
:10042000F894111105C09C91ED2FE095E92302C0CD
:10043000EC91ED2BEC938FBFDF91CF911F9108953D
:10044000EF92FF920F931F93CF93DF93EC016230F3
:1004500018F08F8588608F876B8B1C8A80E48D8B6A
:1004600080E18E8B80E58F8B61E08C810E94F500AE
:100470008D818F3F19F061E00E94F50061E08E816F
:100480000E94F5007E0187E0E80EF11C00E010E01C
:100490008F8584FD03C084E090E002C088E090E096
:1004A000081719074CF461E0F70181917F010E9460
:1004B000F5000F5F1F4FECCF8BE39DE00197F1F745
:1004C00060E08C810E94F00160E08E810E94F0016A
:1004D0008D818F3F19F060E00E94F0016F8564FD0F
:1004E0001DC063E0CE010E9457060BE416E4C8016C
:1004F0000197F1F763E0CE010E945706C80101970A
:10050000F1F763E0CE010E94570683E592E0019780
:10051000F1F762E0CE010E94570616C06062CE017C
:100520000E94DD068BE496E40197F1F76F85606227
:10053000CE010E94DD0683E592E00197F1F76F8519
:100540006062CE010E94DD066F856062CE010E946E
:10055000DD0684E0888B6CE0CE010E94DD0661E060
:10056000CE010E94DD068BE39FE10197F1F782E067
:10057000898B66E0CE01DF91CF911F910F91FF90A3
:10058000EF900C94DD062FB7F89460915B027091A8
:100590005C0280915D0290915E022FBF0895CF9220
:1005A000DF92EF92FF920F931F93CF93DF93CDB71C
:1005B000DEB7C054D1400FB6F894DEBF0FBECDBF3A
:1005C0000E94C3020091390210913A0220913B022D
:1005D00030913C026B017C01C01AD10AE20AF30A95
:1005E00040EDC41647E0D406E104F10418F480910C
:1005F0004102C1C06093390270933A0280933B027A
:1006000090933C0210923402109233021092320204
:10061000109231021092300262E0809135020E9405
:10062000F50061E070E080E090E00E94560161E03A
:10063000809135020E94F50060E0809135020E94B1
:10064000F001809136028551823028F48BE291E1ED
:100650000197F1F706C064E170E080E090E00E944D
:10066000560162E0809135020E94F5008BE990E02E
:100670000197F1F7F89480E00E948C006F3F7F4F64
:100680008F4F9F4F21F410924102789441C081E036
:100690000E948C006F3F7F4F8F4F9F4FA1F38E01C1
:1006A0000F5F1F4F6E012FEBC21A2EEFD20A780197
:1006B00080E00E948C00F7016083718382839383C2
:1006C00081E00E948C00F7016483758386839783A1
:1006D000F8E0EF0EF11CEC14FD0451F7789420E0E3
:1006E00030E0F8014081518162817381C480D580FE
:1006F000E680F7804F3FFFEF5F076F077F0731F01E
:100700008FEFC816D806E806F80621F410924102C9
:1007100080E031C0F90183E0F595E7958A95E1F72E
:10072000E05DFD4F8081880F4C155D056E057F05EE
:1007300008F4816080832F5F3F4F085F1F4F28328E
:10074000310579F62091340230E0409130028091F9
:10075000310290E0840F911D40913202840F911D6F
:1007600040913302840F911D99272817390771F69C
:1007700081E080934102C05CDE4F0FB6F894DEBF8B
:100780000FBECDBFDF91CF911F910F91FF90EF90E2
:10079000DF90CF9008951F920F920FB60F92112401
:1007A0002F933F938F939F93AF93BF9380915B025F
:1007B00090915C02A0915D02B0915E0230915A026C
:1007C00023E0230F2D3720F40196A11DB11D05C094
:1007D00026E8230F0296A11DB11D20935A02809393
:1007E0005B0290935C02A0935D02B0935E028091E5
:1007F0005F0290916002A0916102B0916202019645
:10080000A11DB11D80935F0290936002A0936102CD
:10081000B0936202BF91AF919F918F913F912F91C1
:100820000F900FBE0F901F9018951F920F920FB64A
:100830000F9211242F933F934F935F936F937F9366
:100840008F939F93AF93BF93EF93FF93E091120128
:10085000F09113010995FF91EF91BF91AF919F9195
:100860008F917F916F915F914F913F912F910F9059
:100870000FBE0F901F9018951F920F920FB60F92F8
:1008800011242F933F934F935F936F937F938F9395
:100890009F93AF93BF93EF93FF93E0911001F0917B
:1008A00011010995FF91EF91BF91AF919F918F91A8
:1008B0007F916F915F914F913F912F910F900FBE5C
:1008C0000F901F901895DC01ED91FC910190F08143
:1008D000E02D09946115710579F0FB01019000206C
:1008E000E9F73197AF01461B570BDC01ED91FC9105
:1008F0000280F381E02D099480E090E008954F920A
:100900005F926F927F92EF92FF920F931F93CF931C
:10091000DF93CDB7DEB7A1970FB6F894DEBF0FBE59
:10092000CDBF7C01FA01CB0119A2223008F42AE0E4
:100930008E010F5D1F4F422E512C612C712CBF0177
:10094000A30192010E940911F901CA010150110984
:100950006A3014F4605D01C0695CD8016C93232B8C
:10096000242B252B61F7B801C7010E946A04A196C8
:100970000FB6F894DEBF0FBECDBFDF91CF911F91B0
:100980000F91FF90EF907F906F905F904F90089540
:100990000C946A04CF92DF92EF92FF920F931F9311
:1009A000CF93DF93CDB7DEB727970FB6F894DEBFAE
:1009B0000FBECDBF6B017C0181E04F830E94C60159
:1009C000C982DA82EB82FC821E821D8268E771E0B6
:1009D00082E492E00E94C804BE016F5F7F4F82E410
:1009E00092E00E94E0068C016FED0E9463044F814B
:1009F000642FC8010E94630427960FB6F894DEBFE7
:100A00000FBECDBFDF91CF911F910F91FF90EF905F
:100A1000DF90CF9008951F920F920FB60F9211247E
:100A20002F933F934F935F936F937F938F939F93F6
:100A3000AF93BF93EF93FF9383E991E00E94CD05BD
:100A4000FF91EF91BF91AF919F918F917F916F91A6
:100A50005F914F913F912F910F900FBE0F901F907C
:100A60001895FC01538D448D252F30E0842F90E0A4
:100A7000821B930B541710F0CF9608950197089599
:100A8000FC01918D828D981761F0828DDF01A80F96
:100A9000B11D5D968C91928D9F5F9F73928F90E0B8
:100AA00008958FEF9FEF0895FC01918D828D981727
:100AB00031F0828DE80FF11D858D90E008958FEF64
:100AC0009FEF0895FC01918D228D892F90E0805C2D
:100AD0009F4F821B91098F739927089580E090E0C2
:100AE000892B29F00E94BC0181110C94000008950B
:100AF000089580E090E0089590918D0181E089272C
:100B000080938D0108950E943111CF93DF93EC0102
:100B100060E08E810E94F00161E08E810E94F00110
:100B200060E08E810E94F0018BE891E00197F1F77F
:100B3000DF91CF9108951F920F920FB60F9211245B
:100B40002F938F939F93EF93FF93E091A301F091E5
:100B5000A4018081E091A901F091AA0182FD12C057
:100B600090818091AC018F5F8F732091AD018217CE
:100B700051F0E091AC01F0E0ED56FE4F958F80937F
:100B8000AC0101C08081FF91EF919F918F912F91D6
:100B90000F900FBE0F901F901895FC01848DDF0100
:100BA000A80FB11DA35ABF4F2C91848D90E00196E0
:100BB0008F739927848FA689B7892C93A089B189CF
:100BC0008C9180648C93938D848D981306C00288D9
:100BD000F389E02D80818F7D80830895EF92FF92CD
:100BE0000F931F93CF93DF93EC0181E0888F9B8D50
:100BF0008C8D981305C0E889F989808185FD24C012
:100C0000F62E0B8D10E00F5F1F4F0F731127E02E94
:100C10008C8DE8120CC00FB607FCFACFE889F98971
:100C2000808185FFF5CFCE010E94CD05F1CF8B8D60
:100C3000FE01E80FF11DE35AFF4FF0820B8FEA89A6
:100C4000FB898081806207C0EE89FF896083E88923
:100C5000F98980818064808381E090E0DF91CF9189
:100C60001F910F91FF90EF900895CF93DF93EC01C8
:100C7000888D8823C9F0EA89FB89808185FD05C0BC
:100C8000A889B9898C9186FD0FC00FB607FCF5CFF6
:100C9000808185FFF2CFA889B9898C9185FFEDCF3E
:100CA000CE010E94CD05E7CFDF91CF910895CF927D
:100CB000DF92EF92FF920F931F93CF93DF937C010C
:100CC0006C0187E0C80ED11CC0E0D0E0062F10E018
:100CD000B8010C2E02C0759567950A94E2F7617011
:100CE000F60181916F010E94F0012196C430D10577
:100CF00079F7C701DF91CF911F910F91FF90EF908E
:100D0000DF90CF900C948505CF92DF92EF92FF9207
:100D10000F931F93CF93DF93EC01F62E642F8C81FA
:100D20000E94F0018D818F3F19F060E00E94F00178
:100D30008F850F2D10E084FF25C06E0187E0C80E5F
:100D4000D11CE12CF12CB8010E2C02C075956795D1
:100D50000A94E2F76170F60181916F010E94F0013F
:100D6000FFEFEF1AFF0A88E0E816F10461F7CE0101
:100D7000DF91CF911F910F91FF90EF90DF90CF9077
:100D80000C948505B80184E0759567958A95E1F71F
:100D9000CE010E9457066F2DCE01DF91CF911F919A
:100DA0000F91FF90EF90DF90CF900C94570641E0A9
:100DB0000E94840681E090E0089540E00C9484064F
:100DC0004F925F926F927F928F929F92AF92BF925B
:100DD000CF92DF92EF92FF92CF93DF93EC01FB0172
:100DE000B480C080D180E280F380A7019601C70162
:100DF000B6010E94EF10882319F069E471E01AC06F
:100E000026013701E89477F82FEF3FEF4FE75FE7D0
:100E1000C301B2010E94EF10811110C02FEF3FEF0C
:100E20004FE75FE7C301B2010E94DF0E181634F4EA
:100E30006DE471E0CE010E946A047FC02FEF3FEFA6
:100E40004FE75FE4C701B6010E94371018161CF483
:100E500061E571E0EFCF2FEF3FEF4FE75FECC701A8
:100E6000B6010E94DF0E87FDF3CF20E030E0A9013C
:100E7000C701B6010E94DF0E87FF08C06DE2CE01F8
:100E80000E946304F7FAF094F7F8F094A12C60E064
:100E900070E080E09FE3AB1440F420E030E040E2FB
:100EA00051E40E94E40EA394F6CF9B01AC01C7016C
:100EB000B6010E94730E2B013C010E94560F6B017C
:100EC0007C010E94850F9B01AC01C301B2010E940D
:100ED000720E2B013C012AE0B701A601CE010E944F
:100EE0007F04BB2021F06EE2CE010E946304FB2C44
:100EF000FF2019F120E030E040E251E4C301B201EB
:100F00000E943C102B013C010E94560F4B01A12C6A
:100F1000B12C2AE0B501A401CE010E947F04C501D5
:100F2000B4010E94850F9B01AC01C301B2010E9474
:100F3000720E2B013C01FA94DBCFCE01DF91CF91F1
:100F4000FF90EF90DF90CF90BF90AF909F908F90E9
:100F50007F906F905F904F9008952F923F924F92A5
:100F60005F926F927F928F929F92AF92BF92CF9239
:100F7000DF92EF92FF920F931F93CF93DF93CDB742
:100F8000DEB7A2970FB6F894DEBF0FBECDBF1091AB
:100F90008C010E94CF02882309F45AC08091360246
:100FA0008B3008F455C08D30C8F08551823008F080
:100FB0004FC000913202602F6F7770E0762F662766
:100FC00080913302682B80E090E00E94850F2DEC29
:100FD0003CEC4CEC5DE30E943C101FC000913202DF
:100FE000602F70E080E090E00E94850F6B017C0133
:100FF000809133028F70682F70E080E090E00E9453
:10100000870F2DEC3CEC4CEC5DE30E943C109B0107
:10101000AC01C701B6010E94730E6B017C0107FF92
:1010200004C0F7FAF094F7F8F0941123B9F026E62B
:1010300036E646EE5FE3C701B6010E943C1020E0B1
:1010400030E040E052E40E94730E6B017C0106C068
:10105000C12CD12C30ECE32E3FE7F32EC092670277
:10106000D0926802E0926902F0926A02A0900C01AC
:10107000B0900D0100910E0110910F019501A80192
:10108000C701B6010E943710181614F456018701E3
:10109000C501D80180930C0190930D01A0930E011E
:1010A000B0930F01A0900801B090090100910A01CE
:1010B00010910B019501A801C701B6010E94DF0E36
:1010C00087FF02C056018701C501D801809308013E
:1010D00090930901A0930A01B0930B010E94CF02E3
:1010E0008823E1F1809136028B30C0F18D30B0F071
:1010F0008551823098F56091300270E0762F662736
:1011000080913102682B80E090E00E94850F2DECE9
:101110003CEC4CEC5DE30E943C101DC06091300241
:1011200070E080E090E00E94870F4B015C018091AD
:101130003102682F70E080E090E00E94870F2DEC74
:101140003CEC4CEC5DE30E943C109B01AC01C50102
:10115000B4010E94730E1B014C0106C0212C312CDE
:1011600080EC882E9FE7992EC101D4018093630201
:1011700090936402A0936502B0936602A09004016C
:10118000B090050100910601109107019501A80199
:10119000B101C4010E943710181614F451018401E2
:1011A000C501D8018093040190930501A093060125
:1011B000B0930701A0900001B090010100910201DD
:1011C000109103019501A801B101C4010E94DF0E35
:1011D00087FF02C051018401C501D801809300013D
:1011E00090930101A0930201B093030180918C01BF
:1011F0008D8F811113C026E636E646EE5FE3C70108
:10120000B6010E943C1020E030E040E052E40E9431
:10121000730E162F072FB82EA92E04C01C2D0D2DCE
:10122000BE2CAF2C20E030E044E752E4612F702F59
:101230008B2D9A2D0E94730E2B013C0120E030E093
:1012400048E852E4612F702F8B2D9A2D0E94720E68
:101250002AE939E949E95FE30E943C109B01AC01AE
:10126000C301B2010E94730E2B013C0122E133E85D
:1012700040EC5DE3B101C4010E943C109B01AC0154
:10128000C301B2010E94730E20E030E040E05FE352
:101290000E943C106F8B7B8B8B8F9C8F20E030E00B
:1012A0004EE952E40E94371018160CF097C1212F16
:1012B000302F4B2D5A2D612F702F8B2D9A2D0E9480
:1012C0003C102B013C019101A401B101C4010E9419
:1012D0003C106F8B788F898F9A8F21E133E243E046
:1012E00050E4612F702F8B2D9A2D0E943C1029E124
:1012F00034E849E252E40E94720E6B8B7C8B8D8B3A
:101300009E8B26E13BE442E251E4B101C4010E941C
:101310003C109B01AC016B897C898D899E890E9460
:10132000730E6B8B7C8B8D8B9E8B28E436E246E6AE
:101330005EEB612F702F8B2D9A2D0E943C10910136
:10134000A4010E943C109B01AC016B897C898D89B2
:101350009E890E94730E6B8B7C8B8D8B9E8B20EEF7
:101360003FE040EE5BEBC301B2010E943C109B01E9
:10137000AC016B897C898D899E890E94730E6B8B71
:101380007C8B8D8B9E8B28EF37E840E65DEB6F8979
:10139000788D898D9A8D0E943C109B01AC016B89E0
:1013A0007C898D899E890E94730E6B8B7C8B8D8BC3
:1013B0009E8B2CEA3DE041EA5AE3C301B2010E9450
:1013C0003C109101A4010E943C109B01AC016B896F
:1013D0007C898D899E890E94730E6B8B7C8B8D8B93
:1013E0009E8B28EC3FE84FE55AE3612F702F8B2D41
:1013F0009A2D0E943C102F89388D498D5A8D0E945C
:101400003C109B01AC016B897C898D899E890E946F
:10141000730E6B8B7C8B8D8B9E8B21EF3BE845E0B5
:1014200056EBC301B2010E943C102F89388D498DC3
:101430005A8D0E943C109B01AC016B897C898D897F
:101440009E890E94730E6F8B7B8B8B8F9C8F20E00D
:1014500030E040E551E4B101C4010E94DF0E87FF96
:1014600068C020E030E040EA52E4612F702F8B2DFD
:101470009A2D0E94371087FD5CC020E030E040EEDE
:1014800052E4612F702F8B2D9A2D0E94DF0E1816BB
:101490000CF49CC19101A40160E070E080E591E44E
:1014A0000E94720E20E030E040E85EE30E943C10B3
:1014B0006E8F7F8F88A399A320E030E04EEB52E43B
:1014C000612F702F8B2D9A2D0E94720E2B013C01E3
:1014D00020E030E0A9010E94371018164CF4A30157
:1014E000920160E070E088E891E40E94720E08C00A
:1014F00020E030E048E851E4C301B2010E94730EDD
:101500002EE33DEE40E75DE30E943C100E94AF10E9
:101510009B01AC016E8D7F8D88A199A10E943C102A
:101520009B01AC016F897B898B8D9C8D0E94720E13
:1015300051C020E030E04AEA52E4B101C4010E9407
:10154000371018160CF04AC020E030E040EA52E4B0
:10155000612F702F8B2D9A2D0E94371087FD3EC072
:1015600020E030E04EEA52E4612F702F8B2D9A2D4F
:101570000E94DF0E181694F120E030E04AEA52E4AF
:10158000B101C4010E94720E2DEC3CEC4CEC5DE309
:101590000E943C102B013C01212F302F4B2D5A2D46
:1015A00060E070E08EEA92E40E94720E2DEC3CEC5A
:1015B0004CE45EE30E943C109B01AC01C301B2010C
:1015C0000E943C109B01AC016F897B898B8D9C8DA7
:1015D0000E94730E6F8B7B8B8B8F9C8F8D8D8111F7
:1015E00013C020E030E040E052E46F897B898B8DAE
:1015F0009C8D0E94720E26E838E34EE05FE30E9465
:101600003C10162F072F04C01F890B898B8D9C8DD2
:10161000412F502FBC014093880150938901609362
:101620008A0170938B018D8D811102C023E401C06A
:1016300026E480E02AA30E94C601C101D4018F8361
:101640009887A987BA8782E090E09C878B87C982B8
:10165000DA82EB82FC829E838D83BE016F5F7F4FB7
:1016600082E492E00E94E0068C016FED0E94630428
:101670002AA1622FC8010E94630460E2C8010E948F
:101680006304BE01695F7F4FC8010E94E00665E503
:1016900071E00E94C80480918C01811102C043E472
:1016A00001C046E4609188017091890180918A01AE
:1016B00090918B010E94CA0480918C01811102C01B
:1016C00013E401C016E4C0906302D0906402E0907D
:1016D0006502F09066024091670250916802609145
:1016E000690270916A028091880190918901A091AC
:1016F0008A01B0918B018D879E87AF87B88B82E07E
:1017000090E09A8B898BCF82D886E986FA869C876F
:101710008B8749835A836B837C839E838D836AE5A1
:1017200071E083E991E00E94C804BE016F5F7F4FC2
:1017300083E991E00E94E0067C01612F0E9463042E
:1017400068E671E0C7010E94C804BE01695F7F4F6F
:10175000C7010E94E0067C0164E771E00E94C804B2
:10176000BE01635F7F4FC7010E94E0067C01612FCD
:101770000E94630465E871E0C7010E946A0483E97E
:1017800091E00E9435060E94C30260938E0170931F
:101790008F018093900190939101A2960FB6F894D7
:1017A000DEBF0FBECDBFDF91CF911F910F91FF9094
:1017B000EF90DF90CF90BF90AF909F908F907F90F1
:1017C0006F905F904F903F902F90089520E030E011
:1017D0004AEA52E4B101C4010E94371018160CF411
:1017E000BFCEFCCEE3E9F1E01382128288EE93E0F3
:1017F000A0E0B0E084839583A683B78388E191E07D
:101800009183808385EC90E09587848784EC90E0D9
:101810009787868780EC90E0918B808B81EC90E0BD
:10182000938B828B82EC90E0958B848B86EC90E09E
:10183000978B868B118E128E138E148EA0E3B2E0DE
:1018400086E015968C93159786E116968C931697DD
:10185000E4EBF0E0E4911796EC931797E0EAF0E000
:10186000E4911896EC93189740E85EE360E070E02E
:101870001D964D935D936D937C935097E2E4F2E057
:10188000138212828AE291E0918380838CE08483C8
:101890008FEF85838BE0868385E0878384E0808774
:1018A00083E0818787E082871386148615861686F3
:1018B000178661E0CF010C942002CF93DF93CDB760
:1018C000DEB764970FB6F894DEBF0FBECDBF789435
:1018D00084B5826084BD84B5816084BD85B5826035
:1018E00085BD85B5816085BD80916E0081608093E6
:1018F0006E0010928100809181008260809381004F
:10190000809181008160809381008091800081605E
:10191000809380008091B10084608093B1008091B9
:10192000B00081608093B00080917A0084608093E1
:101930007A0080917A00826080937A0080917A00A8
:10194000816080937A0080917A00806880937A0029
:101950001092C10062E088E00E94F50062E082E03F
:101960000E94F5008CE795E090931101809310019F
:10197000809169008C7F826080936900E89A62E0C0
:1019800082E492E00E94200262E371E082E492E04D
:101990000E94C804E091A301F091A40182E0808339
:1019A000E0919F01F091A0011082E091A101F091DE
:1019B000A2018FEC80831092AB01E091A701F0911E
:1019C000A80186E08083E091A501F091A6018081C5
:1019D00080618083E091A501F091A60180818860FB
:1019E0008083E091A501F091A601808180688083C9
:1019F000E091A501F091A60180818F7D808368EB45
:101A00007BE080E090E00E9456010E94AD070E94BA
:101A1000C30260938E0170938F0180939001909325
:101A2000910102E010E00E94C302C0908E01D090AC
:101A30008F01E0909001F0909101DC01CB018C19B5
:101A40009D09AE09BF0981369A4EA105B10510F076
:101A50000E94AD0780918D01882309F4ACC00E94DB
:101A6000AD078090880190908901A0908A01B09084
:101A70008B018091000190910101A0910201B09130
:101A800003018D879E87AF87B88B409004015090EB
:101A90000501609006017090070180918C01811111
:101AA00003C023E4322E02C096E4392EC090080110
:101AB000D0900901E0900A01F0900B0140910C01D7
:101AC00050910D0160910E0170910F01498B5A8B5D
:101AD0006B8B7C8B0E94D90181E00E94C6014989F1
:101AE0005A896B897C894F83588769877A871C87D5
:101AF0000B87C982DA82EB82FC821E830D83BE01D2
:101B00006F5F7F4F82E492E00E94E0067C0162E416
:101B100071E00E94C804BE01695F7F4FC7010E9447
:101B2000E0067C016FED0E946304632DC7010E94F3
:101B3000630460ED77E080E090E00E9456010E942F
:101B4000D90181E00E94C6014F82588669867A8653
:101B50001C870B878D859E85AF85B88989839A837D
:101B6000AB83BC831E830D83BE016F5F7F4F82E416
:101B700092E00E94E0067C0162E471E00E94C804E9
:101B8000BE01695F7F4FC7010E94E00667E471E014
:101B90000E94C80460ED77E080E090E00E9456016A
:101BA000432DC501B4010E94CA0490918D0181E0CA
:101BB000892780938D01E4E8F0E08491E6EBF0E082
:101BC000E490E2EAF0E0F490FF2079F081110E94C5
:101BD000CC00EF2DF0E0EE0FFF1FE057FF4FA59177
:101BE000B4918C91E82209F049C068EE73E080E07E
:101BF00090E00E945601F0908C01FF2009F441C052
:101C000020E030E040E052E460910C0170910D0161
:101C100080910E0190910F010E94720E26E838E328
:101C20004EE05FE30E943C1060930C0170930D0145
:101C300080930E0190930F0120E030E040E052E4E9
:101C4000609108017091090180910A0190910B0146
:101C50000E94720E26E838E34EE05FE30E943C10DB
:101C6000609308017093090180930A0190930B011E
:101C700081E08F2580938C010E94AD070E946E0544
:101C8000D2CE26E636E646EE5FE360910C01709117
:101C90000D0180910E0190910F010E943C1020E0F7
:101CA00030E040E052E40E94730E60930C017093A8
:101CB0000D0180930E0190930F0126E636E646EE65
:101CC0005FE3609108017091090180910A01909190
:101CD0000B010E943C1020E030E040E052E40E9402
:101CE000730EBECF5058BB27AA270E948A0E0C94B1
:101CF000FD0F0E94EF0F38F00E94F60F20F039F42C
:101D00009F3F19F426F40C94EC0F0EF4E095E7FBDA
:101D10000C94E60FE92F0E940E1058F3BA176207D1
:101D200073078407950720F079F4A6F50C9430101A
:101D30000EF4E0950B2EBA2FA02D0B01B9019001E6
:101D40000C01CA01A0011124FF27591B99F0593F2A
:101D500050F4503E68F11A16F040A22F232F342F72
:101D60004427585FF3CF469537952795A795F040C0
:101D70005395C9F77EF41F16BA0B620B730B840BD5
:101D8000BAF09150A1F0FF0FBB1F661F771F881F8D
:101D9000C2F70EC0BA0F621F731F841F48F48795E5
:101DA00077956795B795F7959E3F08F0B0CF9395D7
:101DB000880F08F09927EE0F9795879508950E9450
:101DC000C20F08F481E008950E94F80E0C94FD0FF4
:101DD0000E94F60F58F00E94EF0F40F029F45F3F89
:101DE00029F00C94E60F51110C9431100C94EC0F67
:101DF0000E940E1068F39923B1F3552391F3951BBC
:101E0000550BBB27AA2762177307840738F09F5F1B
:101E10005F4F220F331F441FAA1FA9F335D00E2E88
:101E20003AF0E0E832D091505040E695001CCAF7F5
:101E30002BD0FE2F29D0660F771F881FBB1F2617B8
:101E400037074807AB07B0E809F0BB0B802DBF018F
:101E5000FF2793585F4F3AF09E3F510578F00C945E
:101E6000E60F0C9431105F3FE4F3983ED4F386956F
:101E700077956795B795F7959F5FC9F7880F911D7F
:101E80009695879597F90895E1E0660F771F881F6B
:101E9000BB1F621773078407BA0720F0621B730B1E
:101EA000840BBA0BEE1F88F7E09508950E94161078
:101EB00088F09F5798F0B92F9927B751B0F0E1F00B
:101EC000660F771F881F991F1AF0BA95C9F714C0BB
:101ED000B13091F00E943010B1E008950C943010B0
:101EE000672F782F8827B85F39F0B93FCCF38695F4
:101EF00077956795B395D9F73EF490958095709551
:101F000061957F4F8F4F9F4F0895E89409C097FBCD
:101F10003EF490958095709561957F4F8F4F9F4FC0
:101F20009923A9F0F92F96E9BB279395F695879504
:101F300077956795B795F111F8CFFAF4BB0F11F4C7
:101F400060FF1BC06F5F7F4F8F4F9F4F16C088236E
:101F500011F096E911C0772321F09EE8872F762FA4
:101F600005C0662371F096E8862F70E060E02AF0E5
:101F70009A95660F771F881FDAF7880F96958795D1
:101F800097F90895990F0008550FAA0BE0E8FEEFA6
:101F900016161706E807F907C0F012161306E4072D
:101FA000F50798F0621B730B840B950B39F40A2626
:101FB00061F0232B242B252B21F408950A2609F404
:101FC000A140A6958FEF811D811D089597F99F6708
:101FD00080E870E060E008959FEF80EC08950024B1
:101FE0000A941616170618060906089500240A947E
:101FF00012161306140605060895092E0394000C04
:1020000011F4882352F0BB0F40F4BF2B11F460FF92
:1020100004C06F5F7F4F8F4F9F4F089557FD9058BB
:10202000440F551F59F05F3F71F04795880F97FB9C
:10203000991F61F09F3F79F0879508951216130656
:102040001406551FF2CF4695F1DF08C01616170685
:102050001806991FF1CF86957105610508940895BA
:10206000E894BB2766277727CB0197F908950E944C
:10207000C20F08F48FEF08950E944F100C94FD0FCB
:102080000E94EF0F38F00E94F60F20F0952311F018
:102090000C94E60F0C94EC0F11240C9431100E9458
:1020A0000E1070F3959FC1F3950F50E0551F629F7E
:1020B000F001729FBB27F00DB11D639FAA27F00DA1
:1020C000B11DAA1F649F6627B00DA11D661F829FC8
:1020D0002227B00DA11D621F739FB00DA11D621FAD
:1020E000839FA00D611D221F749F3327A00D611DCA
:1020F000231F849F600D211D822F762F6A2F1124AC
:102100009F5750409AF0F1F088234AF0EE0FFF1FDE
:10211000BB1F661F771F881F91505040A9F79E3F35
:10212000510580F00C94E60F0C9431105F3FE4F3FE
:10213000983ED4F3869577956795B795F795E7958B
:102140009F5FC1F7FE2B880F911D9695879597F994
:10215000089519F416F40C94EC0F0C94F4100E94EA
:102160001610B8F39923C9F3B6F39F57550B87FFA1
:102170000E9402110024A0E640EA90018058569582
:10218000979528F4805C660F771F881F20F026172C
:102190003707480730F4621B730B840B2029312961
:1021A0004A2BA69517940794202531254A2758F7DE
:1021B000660F771F881F20F026173707480730F46F
:1021C000620B730B840B200D311D411DA09581F70F
:1021D000B901842F9158880F9695879508950E948C
:1021E000C20F880B990B08959F3F31F0915020F456
:1021F000879577956795B795880F911D96958795E3
:1022000097F9089591505040660F771F881FD2F7B5
:102210000895A1E21A2EAA1BBB1BFD010DC0AA1F27
:10222000BB1FEE1FFF1FA217B307E407F50720F03F
:10223000A21BB30BE40BF50B661F771F881F991FBA
:102240001A9469F760957095809590959B01AC0103
:10225000BD01CF010895EE0FFF1F0590F491E02D11
:10226000099481E090E0F8940C943611F894FFCF33
:10227000003C1C46003C1CC6003C1C46003C1CC6E6
:102280009001900100000000EE0591013105350636
:1022900062054005540500000000D706910179054C
:1022A0007805574541544845522053544154494FAD
:1022B0004E00202D3E200025006E616E00696E6686
:1022C000006F766600252020200054656D706572D1
:1022D00061747572653A20002048756D696469748F
:1022E000793A200020252C204865617420496E64CD
:0822F00065783A20000D0A0098
:00000001FF
