:100000000C9462000C943C040C9415040C948A002B
:100010000C948A000C948A000C948A000C948A0038
:100020000C948A000C948A000C948A000C948A0028
:100030000C948A000C948A000C948A000C948A0018
:100040000C94CB030C948A000C94E4050C94BE052C
:100050000C948A000C948A000C948A000C948A00F8
:100060000C948A000C948A000000000024002700F1
:100070002A0000000000250028002B0000000008D6
:10008000000201000003040700000000000000005F
:1000900000000000230026002900040404040404D6
:1000A0000404020202020202030303030303010227
:1000B00004081020408001020408102001020408F6
:1000C0001020CF0B11241FBECFEFD8E0DEBFCDBF75
:1000D00011E0A0E0B1E0E8E0F2E202C005900D928C
:1000E000AA38B107D9F722E0AAE8B1E001C01D9211
:1000F000AD36B207E1F710E0C2E6D0E004C02197C8
:10010000FE010E94F710C136D107C9F70E943A0CD0
:100110000C9402110C940000CF92DF92EF92FF92A8
:10012000CF93DF93B0913502882311F0AB2F01C03C
:10013000A0E08091360290E0880F991F80579F4F72
:10014000C0903B02D0903C02E0903D02F0903E0215
:1001500020E030E0FC01C591D491E881EB23A901B6
:1001600060E070E0EA130CC02F5F3F4F4C155D0557
:100170006E057F0578F33FEF2FEF8FEF9FEF03C002
:10018000322F252FCB01632F722FDF91CF91FF905C
:10019000EF90DF90CF900895833081F028F4813084
:1001A00099F08230A1F008958730A9F08830B9F035
:1001B0008430D1F4809180008F7D03C080918000D5
:1001C0008F7780938000089584B58F7702C084B5BF
:1001D0008F7D84BD08958091B0008F7703C080919A
:1001E000B0008F7D8093B0000895CF93DF9390E0AF
:1001F000FC01E255FF4F2491FC01E656FF4F84912C
:10020000882361F190E0880F991FFC01E859FF4FA6
:10021000C591D491FC01EE58FF4FA591B4916111A5
:1002200009C09FB7F8948881209582238883EC9138
:100230002E230BC0623061F49FB7F8943881822F6F
:10024000809583238883EC912E2B2C939FBF06C02F
:100250008FB7F894E8812E2B28838FBFDF91CF9141
:1002600008953FB7F89480915D0290915E02A0914D
:100270005F02B091600226B5A89B05C02F3F19F020
:100280000196A11DB11D3FBFBA2FA92F982F882716
:10029000820F911DA11DB11DBC01CD0142E0660F71
:1002A000771F881F991F4A95D1F708958F929F92C3
:1002B000AF92BF92CF92DF92EF92FF926B017C01DF
:1002C0000E9431014B015C01C114D104E104F1042D
:1002D000F1F00E943101DC01CB0188199909AA09CA
:1002E000BB09883E9340A105B10570F321E0C21A15
:1002F000D108E108F10888EE880E83E0981EA11C61
:10030000B11CC114D104E104F10419F7DDCFFF9051
:10031000EF90DF90CF90BF90AF909F908F90089517
:100320000895CF92DF92EF92FF920F931F93CF9396
:10033000DF936C017A018B01C0E0D0E0CE15DF05C0
:1003400089F0D8016D918D01D601ED91FC9101905C
:10035000F081E02DC6010995892B11F47E0102C0C0
:100360002196ECCFC701DF91CF911F910F91FF90A4
:10037000EF90DF90CF90089581E991E00E94FB0417
:1003800021E0892B09F420E0822F0895843008F0C1
:1003900083E090915302891710F08FEF890FE82FB7
:1003A000F0E0E05CFD4F6489606880E492E00C94CA
:1003B0009C06CF93DF9381E00E94C601C0E1D0E0AC
:1003C000E0914002F09141020190F081E02D60E265
:1003D00080E492E00995219799F7DF91CF910895F4
:1003E0001F93CF93DF93282F30E0F901E458FF4F9C
:1003F0008491F901E255FF4FD491F901E656FF4F80
:10040000C491CC23C9F0162F81110E94CC00EC2F8F
:10041000F0E0EE0FFF1FEE58FF4FA591B4918FB79C
:10042000F894111105C09C91ED2FE095E92302C0CD
:10043000EC91ED2BEC938FBFDF91CF911F9108953D
:10044000EF92FF920F931F93CF93DF93EC016230F3
:1004500018F08F8588608F876B8B1C8A80E48D8B6A
:1004600080E18E8B80E58F8B61E08C810E94F500AE
:100470008D818F3F19F061E00E94F50061E08E816F
:100480000E94F5007E0187E0E80EF11C00E010E01C
:100490008F8584FD03C084E090E002C088E090E096
:1004A000081719074CF461E0F70181917F010E9460
:1004B000F5000F5F1F4FECCF8BE39DE00197F1F745
:1004C00060E08C810E94F00160E08E810E94F0016A
:1004D0008D818F3F19F060E00E94F0016F8564FD0F
:1004E0001DC063E0CE010E9416060BE416E4C801AD
:1004F0000197F1F763E0CE010E941606C80101974B
:10050000F1F763E0CE010E94160683E592E00197C1
:10051000F1F762E0CE010E94160616C06062CE01BD
:100520000E949C068BE496E40197F1F76F85606268
:10053000CE010E949C0683E592E00197F1F76F855A
:100540006062CE010E949C066F856062CE010E94AF
:100550009C0684E0888B6CE0CE010E949C0661E0E2
:10056000CE010E949C068BE39FE10197F1F782E0A8
:10057000898B66E0CE01DF91CF911F910F91FF90A3
:10058000EF900C949C062FB7F894609159027091EB
:100590005A0280915B0290915C022FBF0895CF9226
:1005A000DF92EF92FF920F931F93CF93DF93CDB71C
:1005B000DEB7C054D1400FB6F894DEBF0FBECDBF3A
:1005C0000E94C30200913702109138022091390233
:1005D00030913A026B017C01C01AD10AE20AF30A97
:1005E00040EDC41647E0D406E104F10418F480910C
:1005F0003F02C1C060933702709338028093390282
:1006000090933A021092320210923102109230020C
:1006100010922F0210922E0262E0809133020E940B
:10062000F50061E070E080E090E00E94560161E03A
:10063000809133020E94F50060E0809133020E94B5
:10064000F001809134028551823028F48BE291E1EF
:100650000197F1F706C064E170E080E090E00E944D
:10066000560162E0809133020E94F5008BE990E030
:100670000197F1F7F89480E00E948C006F3F7F4F64
:100680008F4F9F4F21F410923F02789441C081E038
:100690000E948C006F3F7F4F8F4F9F4FA1F38E01C1
:1006A0000F5F1F4F6E012FEBC21A2EEFD20A780197
:1006B00080E00E948C00F7016083718382839383C2
:1006C00081E00E948C00F7016483758386839783A1
:1006D000F8E0EF0EF11CEC14FD0451F7789420E0E3
:1006E00030E0F8014081518162817381C480D580FE
:1006F000E680F7804F3FFFEF5F076F077F0731F01E
:100700008FEFC816D806E806F80621F410923F02CB
:1007100080E031C0F90183E0F595E7958A95E1F72E
:10072000E25DFD4F8081880F4C155D056E057F05EC
:1007300008F4816080832F5F3F4F085F1F4F28328E
:10074000310579F62091320230E040912E028091FD
:100750002F0290E0840F911D40913002840F911D73
:1007600040913102840F911D99272817390771F69E
:1007700081E080933F02C05CDE4F0FB6F894DEBF8D
:100780000FBECDBFDF91CF911F910F91FF90EF90E2
:10079000DF90CF9008951F920F920FB60F92112401
:1007A0002F933F938F939F93AF93BF938091590261
:1007B00090915A02A0915B02B0915C023091580274
:1007C00023E0230F2D3720F40196A11DB11D05C094
:1007D00026E8230F0296A11DB11D20935802809395
:1007E000590290935A02A0935B02B0935C028091ED
:1007F0005D0290915E02A0915F02B091600201964D
:10080000A11DB11D80935D0290935E02A0935F02D3
:10081000B0936002BF91AF919F918F913F912F91C3
:100820000F900FBE0F901F9018951F920F920FB64A
:100830000F9211242F933F934F935F936F937F9366
:100840008F939F93AF93BF93EF93FF93E091120128
:10085000F09113010995FF91EF91BF91AF919F9195
:100860008F917F916F915F914F913F912F910F9059
:100870000FBE0F901F9018951F920F920FB60F92F8
:1008800011242F933F934F935F936F937F938F9395
:100890009F93AF93BF93EF93FF93E0911001F0917B
:1008A00011010995FF91EF91BF91AF919F918F91A8
:1008B0007F916F915F914F913F912F910F900FBE5C
:1008C0000F901F901895DC01ED91FC910190F08143
:1008D000E02D09946115710579F0FB01019000206C
:1008E000E9F73197AF01461B570BDC01ED91FC9105
:1008F0000280F381E02D099480E090E008954F920A
:100900005F926F927F92EF92FF920F931F93CF931C
:10091000DF93CDB7DEB7A1970FB6F894DEBF0FBE59
:10092000CDBF7C01FA01CB0119A2223008F42AE0E4
:100930008E010F5D1F4F422E512C612C712CBF0177
:10094000A30192010E94D510F901CA0101501109B9
:100950006A3014F4605D01C0695CD8016C93232B8C
:10096000242B252B61F7B801C7010E946A04A196C8
:100970000FB6F894DEBF0FBECDBFDF91CF911F91B0
:100980000F91FF90EF907F906F905F904F90089540
:100990000C946A04FC01538D448D252F30E0842F84
:1009A00090E0821B930B541710F0CF960895019797
:1009B0000895FC01918D828D981761F0828DDF0181
:1009C000A80FB11D5D968C91928D9F5F9F73928F42
:1009D00090E008958FEF9FEF0895FC01918D828D37
:1009E000981731F0828DE80FF11D858D90E0089504
:1009F0008FEF9FEF0895FC01918D228D892F90E05C
:100A0000805C9F4F821B91098F7399270895FC0189
:100A1000848DDF01A80FB11DA35ABF4F2C91848D87
:100A200090E001968F739927848FA689B7892C93BC
:100A3000A089B1898C9180648C93938D848D981357
:100A400006C00288F389E02D80818F7D8083089520
:100A5000EF92FF920F931F93CF93DF93EC0181E00E
:100A6000888F9B8D8C8D981305C0E889F9898081CA
:100A700085FD24C0F62E0B8D10E00F5F1F4F0F7306
:100A80001127E02E8C8DE8120CC00FB607FCFACFB0
:100A9000E889F989808185FFF5CFCE010E9407059D
:100AA000F1CF8B8DFE01E80FF11DE35AFF4FF0826D
:100AB0000B8FEA89FB898081806207C0EE89FF89FC
:100AC0006083E889F98980818064808381E090E097
:100AD000DF91CF911F910F91FF90EF900895CF93E9
:100AE000DF93EC01888D8823C9F0EA89FB89808136
:100AF00085FD05C0A889B9898C9186FD0FC00FB608
:100B000007FCF5CF808185FFF2CFA889B9898C9148
:100B100085FFEDCFCE010E940705E7CFDF91CF9192
:100B2000089580E090E0892B29F00E94BC0181119A
:100B30000C9400000895089580E090E0089590914D
:100B40008B0181E0892780938B0108950E94FD101D
:100B5000CF93DF93EC0160E08E810E94F00161E0B1
:100B60008E810E94F00160E08E810E94F0018BE88E
:100B700091E00197F1F7DF91CF9108951F920F92C5
:100B80000FB60F9211242F933F934F935F936F9360
:100B90007F938F939F93AF93BF93EF93FF9381E9DD
:100BA00091E00E940705FF91EF91BF91AF919F9156
:100BB0008F917F916F915F914F913F912F910F9006
:100BC0000FBE0F901F9018951F920F920FB60F92A5
:100BD00011242F938F939F93EF93FF93E091A101A3
:100BE000F091A2018081E091A701F091A80182FD1E
:100BF00012C090818091AA018F5F8F732091AB0109
:100C0000821751F0E091AA01F0E0EF56FE4F958F68
:100C10008093AA0101C08081FF91EF919F918F91F4
:100C20002F910F900FBE0F901F901895CF92DF92CB
:100C3000EF92FF920F931F93CF93DF937C016C0190
:100C400087E0C80ED11CC0E0D0E0062F10E0B8014C
:100C50000C2E02C0759567950A94E2F76170F60153
:100C600081916F010E94F0012196C430D10579F77E
:100C7000C701DF91CF911F910F91FF90EF90DF900F
:100C8000CF900C94A805CF92DF92EF92FF920F9332
:100C90001F93CF93DF93EC01F62E642F8C810E947B
:100CA000F0018D818F3F19F060E00E94F0018F8587
:100CB0000F2D10E084FF25C06E0187E0C80ED11C07
:100CC000E12CF12CB8010E2C02C0759567950A94A1
:100CD000E2F76170F60181916F010E94F001FFEF70
:100CE000EF1AFF0A88E0E816F10461F7CE01DF9100
:100CF000CF911F910F91FF90EF90DF90CF900C94C8
:100D0000A805B80184E0759567958A95E1F7CE014D
:100D10000E9416066F2DCE01DF91CF911F910F918A
:100D2000FF90EF90DF90CF900C94160641E00E9468
:100D3000430681E090E0089540E00C9443064F9212
:100D40005F926F927F928F929F92AF92BF92CF925B
:100D5000DF92EF92FF92CF93DF93EC01FB01B4801F
:100D6000C080D180E280F380A7019601C701B6015F
:100D70000E94BB10882319F06AE471E01AC02601B2
:100D80003701E89477F82FEF3FEF4FE75FE7C301B4
:100D9000B2010E94BB10811110C02FEF3FEF4FE74F
:100DA0005FE7C301B2010E94AB0E181634F46EE483
:100DB00071E0CE010E946A047FC02FEF3FEF4FE742
:100DC0005FE4C701B6010E94031018161CF462E527
:100DD00071E0EFCF2FEF3FEF4FE75FECC701B601B8
:100DE0000E94AB0E87FDF3CF20E030E0A901C701E0
:100DF000B6010E94AB0E87FF08C06DE2CE010E94D3
:100E00006304F7FAF094F7F8F094A12C60E070E036
:100E100080E09FE3AB1440F420E030E040E251E496
:100E20000E94B00EA394F6CF9B01AC01C701B6019E
:100E30000E943F0E2B013C010E94220F6B017C019E
:100E40000E94510F9B01AC01C301B2010E943E0EF2
:100E50002B013C012AE0B701A601CE010E947F04CC
:100E6000BB2021F06EE2CE010E946304FB2CFF2028
:100E700019F120E030E040E251E4C301B2010E94E8
:100E800008102B013C010E94220F4B01A12CB12C18
:100E90002AE0B501A401CE010E947F04C501B4017E
:100EA0000E94510F9B01AC01C301B2010E943E0E92
:100EB0002B013C01FA94DBCFCE01DF91CF91FF9063
:100EC000EF90DF90CF90BF90AF909F908F907F90EA
:100ED0006F905F904F9008952F923F924F925F9244
:100EE0006F927F928F929F92AF92BF92CF92DF923A
:100EF000EF92FF920F931F93CF93DF93CDB7DEB79F
:100F0000A2970FB6F894DEBF0FBECDBF10918A0135
:100F10000E94CF02882309F45AC0809134028B309A
:100F200008F455C08D30C8F08551823008F04FC0AC
:100F300000913002602F6F7770E0762F66278091E6
:100F40003102682B80E090E00E94510F2DEC3CECC8
:100F50004CEC5DE30E9408101FC000913002602F2E
:100F600070E080E090E00E94510F6B017C01809165
:100F700031028F70682F70E080E090E00E94530F84
:100F80002DEC3CEC4CEC5DE30E9408109B01AC01A5
:100F9000C701B6010E943F0E6B017C0107FF04C030
:100FA000F7FAF094F7F8F0941123B9F026E636E654
:100FB00046EE5FE3C701B6010E94081020E030E072
:100FC00040E052E40E943F0E6B017C0106C0C12C40
:100FD000D12C30ECE32E3FE7F32EC0926902D09281
:100FE0006A02E0926B02F0926C02A0900C01B09049
:100FF0000D0100910E0110910F019501A801C7018B
:10100000B6010E940310181614F456018701C50199
:10101000D80180930C0190930D01A0930E01B09321
:101020000F01A0900801B090090100910A011091F0
:101030000B019501A801C701B6010E94AB0E87FF05
:1010400002C056018701C501D80180930801909321
:101050000901A0930A01B0930B010E94CF028823DB
:10106000E1F1809134028B30C0F18D30B0F08551C8
:10107000823098F560912E0270E0762F662780917D
:101080002F02682B80E090E00E94510F2DEC3CEC89
:101090004CEC5DE30E9408101DC060912E0270E0D0
:1010A00080E090E00E94530F4B015C0180912F0281
:1010B000682F70E080E090E00E94530F2DEC3CEC34
:1010C0004CEC5DE30E9408109B01AC01C501B4012A
:1010D0000E943F0E1B014C0106C0212C312C80ECDC
:1010E000882E9FE7992EC101D401809365029093C9
:1010F0006602A0936702B0936802A0900401B090CA
:10110000050100910601109107019501A801B101A7
:10111000C4010E940310181614F451018401C50182
:10112000D8018093040190930501A0930601B09328
:101130000701A0900001B0900101009102011091FF
:1011400003019501A801B101C4010E94AB0E87FF04
:1011500002C051018401C501D80180930001909320
:101160000101A0930201B093030180918A018D8F48
:10117000811113C026E636E646EE5FE3C701B601ED
:101180000E94081020E030E040E052E40E943F0E50
:10119000162F072FB82EA92E04C01C2D0D2DBE2CE6
:1011A000AF2C20E030E044E752E4612F702F8B2D0C
:1011B0009A2D0E943F0E2B013C0120E030E048E8D0
:1011C00052E4612F702F8B2D9A2D0E943E0E2AE93A
:1011D00039E949E95FE30E9408109B01AC01C301B2
:1011E000B2010E943F0E2B013C0122E133E840ECAA
:1011F0005DE3B101C4010E9408109B01AC01C30171
:10120000B2010E943F0E20E030E040E05FE30E9428
:1012100008106F8B7B8B8B8F9C8F20E030E04EE92A
:1012200052E40E94031018160CF097C1212F302FA2
:101230004B2D5A2D612F702F8B2D9A2D0E94081047
:101240002B013C019101A401B101C4010E940810CD
:101250006F8B788F898F9A8F21E133E243E050E4DE
:10126000612F702F8B2D9A2D0E94081029E134E8F0
:1012700049E252E40E943E0E6B8B7C8B8D8B9E8BE1
:1012800026E13BE442E251E4B101C4010E940810AE
:101290009B01AC016B897C898D899E890E943F0EE0
:1012A0006B8B7C8B8D8B9E8B28E436E246E65EEB67
:1012B000612F702F8B2D9A2D0E9408109101A4018F
:1012C0000E9408109B01AC016B897C898D899E89E5
:1012D0000E943F0E6B8B7C8B8D8B9E8B20EE3FE0B4
:1012E00040EE5BEBC301B2010E9408109B01AC0110
:1012F0006B897C898D899E890E943F0E6B8B7C8BCC
:101300008D8B9E8B28EF37E840E65DEB6F89788DFB
:10131000898D9A8D0E9408109B01AC016B897C8994
:101320008D899E890E943F0E6B8B7C8B8D8B9E8B53
:101330002CEA3DE041EA5AE3C301B2010E940810E1
:101340009101A4010E9408109B01AC016B897C896A
:101350008D899E890E943F0E6B8B7C8B8D8B9E8B23
:1013600028EC3FE84FE55AE3612F702F8B2D9A2D23
:101370000E9408102F89388D498D5A8D0E940810BF
:101380009B01AC016B897C898D899E890E943F0EEF
:101390006B8B7C8B8D8B9E8B21EF3BE845E056EB76
:1013A000C301B2010E9408102F89388D498D5A8DD2
:1013B0000E9408109B01AC016B897C898D899E89F4
:1013C0000E943F0E6F8B7B8B8B8F9C8F20E030E0D9
:1013D00040E551E4B101C4010E94AB0E87FF68C033
:1013E00020E030E040EA52E4612F702F8B2D9A2DDF
:1013F0000E94031087FD5CC020E030E040EE52E424
:10140000612F702F8B2D9A2D0E94AB0E18160CF4A5
:10141000BAC19101A40160E070E080E591E40E940E
:101420003E0E20E030E040E85EE30E9408106E8F40
:101430007F8F88A399A320E030E04EEB52E4612F28
:10144000702F8B2D9A2D0E943E0E2B013C0120E027
:1014500030E0A9010E94031018164CF4A301920178
:1014600060E070E088E891E40E943E0E08C020E051
:1014700030E048E851E4C301B2010E943F0E2EE380
:101480003DEE40E75DE30E9408100E947B109B0147
:10149000AC016E8D7F8D88A199A10E9408109B01DF
:1014A000AC016F897B898B8D9C8D0E943E0E51C053
:1014B00020E030E04AEA52E4B101C4010E94031086
:1014C00018160CF04AC020E030E040EA52E4612FE8
:1014D000702F8B2D9A2D0E94031087FD3EC020E0B7
:1014E00030E04EEA52E4612F702F8B2D9A2D0E942E
:1014F000AB0E181694F120E030E04AEA52E4B10154
:10150000C4010E943E0E2DEC3CEC4CEC5DE30E94CD
:1015100008102B013C01212F302F4B2D5A2D60E05C
:1015200070E08EEA92E40E943E0E2DEC3CEC4CE41E
:101530005EE30E9408109B01AC01C301B2010E944E
:1015400008109B01AC016F897B898B8D9C8D0E945B
:101550003F0E6F8B7B8B8B8F9C8F8D8D811113C07A
:1015600020E030E040E052E46F897B898B8D9C8DD8
:101570000E943E0E26E838E34EE05FE30E9408102A
:10158000162F072F04C01F890B898B8D9C8D412F2F
:10159000502FBC014093610250936202609363023A
:1015A000709364028D8D811102C023E401C026E492
:1015B00080E02AA30E94C601C101D4018F839887CD
:1015C000A987BA8782E090E09C878B87C982DA82FC
:1015D000EB82FC829E838D83BE016F5F7F4F80E430
:1015E00092E00E949F068C016FED0E9463042AA185
:1015F000622FC8010E94630460E2C8010E94630474
:10160000BE01695F7F4FC8010E949F0666E571E0D9
:101610000E94C80480918A01811102C023E401C0A4
:1016200026E4C0906102D0906202E0906302F090E4
:10163000640281E02AA30E94C601C982DA82EB8299
:10164000FC821E821D8269E771E080E492E00E94C4
:10165000C804BE016F5F7F4F80E492E00E949F0646
:101660008C016FED0E9463042AA1622FC8010E94C1
:10167000630480918A01811102C013E401C016E461
:10168000C0906502D0906602E0906702F090680218
:101690004091690250916A0260916B0270916C02F4
:1016A0008091610290916202A0916302B091640204
:1016B0008D879E87AF87B88B82E090E09A8B898B6D
:1016C000CF82D886E986FA869C878B8749835A839E
:1016D0006B837C839E838D836BE571E081E991E070
:1016E0000E94C804BE016F5F7F4F81E991E00E94B4
:1016F0009F067C01612F0E94630469E671E0C701C7
:101700000E94C804BE01695F7F4FC7010E949F0607
:101710007C0165E771E00E94C804BE01635F7F4FF2
:10172000C7010E949F067C01612F0E94630466E846
:1017300071E0C7010E946A0481E991E00E946F058F
:101740000E94C30260938C0170938D0180938E017F
:1017500090938F01A2960FB6F894DEBF0FBECDBF57
:10176000DF91CF911F910F91FF90EF90DF90CF907D
:10177000BF90AF909F908F907F906F905F904F90B1
:101780003F902F90089520E030E04AEA52E4B10102
:10179000C4010E94031018160CF4A1CEDECEE1E9BC
:1017A000F1E01382128288EE93E0A0E0B0E084833F
:1017B0009583A683B78388E191E09183808385EC4C
:1017C00090E09587848784EC90E09787868780EC0B
:1017D00090E0918B808B81EC90E0938B828B82ECFC
:1017E00090E0958B848B86EC90E0978B868B118EA6
:1017F000128E138E148EAEE2B2E086E015968C93B4
:10180000159786E116968C931697E4EBF0E0E49139
:101810001796EC931797E0EAF0E0E4911896EC93B2
:10182000189740E85EE360E070E01D964D935D938D
:101830006D937C935097E0E4F2E0138212828AE287
:1018400091E0918380838CE084838FEF85838BE0AC
:10185000868385E0878384E0808783E0818787E0D3
:1018600082871386148615861686178661E0CF0157
:101870000C942002CF93DF93CDB7DEB72D970FB630
:10188000F894DEBF0FBECDBF789484B5826084BD6E
:1018900084B5816084BD85B5826085BD85B5816074
:1018A00085BD80916E00816080936E0010928100F2
:1018B00080918100826080938100809181008160AD
:1018C000809381008091800081608093800080916E
:1018D000B10084608093B1008091B00081608093FA
:1018E000B00080917A00846080937A0080917A00C1
:1018F000826080937A0080917A00816080937A0080
:1019000080917A00806880937A001092C10062E032
:1019100088E00E94F50062E082E00E94F5008FE915
:1019200095E09093110180931001809169008C7F64
:10193000826080936900E89A62E080E492E00E940D
:10194000200262E371E080E492E00E94C804E0912A
:10195000A101F091A20182E08083E0919D01F091CC
:101960009E011082E0919F01F091A0018FEC808395
:101970001092A901E091A501F091A60186E0808373
:10198000E091A301F091A401808180618083E091C6
:10199000A301F091A401808188608083E091A3017C
:1019A000F091A401808180688083E091A301F0918F
:1019B000A40180818F7D808368EB7BE080E090E0F4
:1019C0000E9456010E946C070E94C30260938C0122
:1019D00070938D0180938E0190938F0102E010E04F
:1019E00034E8E32E30E0F32E46EBC42E40E0D42E54
:1019F00052EA252E50E0352E0E94C30240908C0101
:101A000050908D0160908E0170908F01DC01CB01B0
:101A100084199509A609B70981369A4EA105B10521
:101A200010F00E946C0780918B01882309F491C00B
:101A30000E946C0780918A01811102C023E401C0D9
:101A400026E4409008015090090160900A017090CE
:101A50000B0180900C0190900D01A0900E01B090B0
:101A60000F012D870E94D90181E00E94C6018F825B
:101A70009886A986BA861C870B8749825A826B8210
:101A80007C821E830D83BE016F5F7F4F80E492E0F6
:101A90000E949F064C0163E471E00E94C804BE01ED
:101AA000695F7F4FC4010E949F064C016FED0E9449
:101AB00063042D85622FC4010E94630460ED77E00A
:101AC00080E090E00E94560140900001509001019A
:101AD00060900201709003018090040190900501D4
:101AE000A0900601B09007010E94D90181E00E94F8
:101AF000C6018F829886A986BA861C870B87498281
:101B00005A826B827C821E830D83BE016F5F7F4F82
:101B100080E492E00E949F064C0163E471E00E9421
:101B2000C804BE01695F7F4FC4010E949F0668E43C
:101B300071E00E94C80460ED77E080E090E00E94D0
:101B4000560190918B0181E0892780938B010E943F
:101B50006C07F7018491F6018490F101949099202B
:101B600081F081110E94CC00892D90E0880F991F8F
:101B700080579F4FFC01A591B4918C91882209F068
:101B800049C068EE73E080E090E00E9456019090BA
:101B90008A01992009F441C020E030E040E052E49D
:101BA00060910C0170910D0180910E0190910F01D7
:101BB0000E943E0E26E838E34EE05FE30E940810E4
:101BC00060930C0170930D0180930E0190930F01AF
:101BD00020E030E040E052E460910801709109019A
:101BE00080910A0190910B010E943E0E26E838E395
:101BF0004EE05FE30E9408106093080170930901B2
:101C000080930A0190930B0181E0892580938A01DA
:101C10000E946C070E949105EFCE26E636E646EE5E
:101C20005FE360910C0170910D0180910E01909124
:101C30000F010E94081020E030E040E052E40E94D2
:101C40003F0E60930C0170930D0180930E019093F1
:101C50000F0126E636E646EE5FE3609108017091DB
:101C6000090180910A0190910B010E94081020E067
:101C700030E040E052E40E943F0EBECF5058BB27F8
:101C8000AA270E94560E0C94C90F0E94BB0F38F071
:101C90000E94C20F20F039F49F3F19F426F40C94EF
:101CA000B80F0EF4E095E7FB0C94B20FE92F0E94F9
:101CB000DA0F58F3BA17620773078407950720F005
:101CC00079F4A6F50C94FC0F0EF4E0950B2EBA2FC8
:101CD000A02D0B01B90190010C01CA01A001112432
:101CE000FF27591B99F0593F50F4503E68F11A16DE
:101CF000F040A22F232F342F4427585FF3CF46956F
:101D000037952795A795F0405395C9F77EF41F1690
:101D1000BA0B620B730B840BBAF09150A1F0FF0F5A
:101D2000BB1F661F771F881FC2F70EC0BA0F621F46
:101D3000731F841F48F4879577956795B795F79536
:101D40009E3F08F0B0CF9395880F08F09927EE0FCB
:101D50009795879508950E948E0F08F481E0089565
:101D60000E94C40E0C94C90F0E94C20F58F00E942A
:101D7000BB0F40F029F45F3F29F00C94B20F5111D2
:101D80000C94FD0F0C94B80F0E94DA0F68F399239E
:101D9000B1F3552391F3951B550BBB27AA27621767
:101DA0007307840738F09F5F5F4F220F331F441F74
:101DB000AA1FA9F335D00E2E3AF0E0E832D09150A8
:101DC0005040E695001CCAF72BD0FE2F29D0660F95
:101DD000771F881FBB1F261737074807AB07B0E8D8
:101DE00009F0BB0B802DBF01FF2793585F4F3AF0DE
:101DF0009E3F510578F00C94B20F0C94FD0F5F3F9D
:101E0000E4F3983ED4F3869577956795B795F79563
:101E10009F5FC9F7880F911D9695879597F908954B
:101E2000E1E0660F771F881FBB1F621773078407E7
:101E3000BA0720F0621B730B840BBA0BEE1F88F7F6
:101E4000E09508950E94E20F88F09F5798F0B92F0F
:101E50009927B751B0F0E1F0660F771F881F991FDF
:101E60001AF0BA95C9F714C0B13091F00E94FC0F76
:101E7000B1E008950C94FC0F672F782F8827B85F86
:101E800039F0B93FCCF3869577956795B395D9F737
:101E90003EF490958095709561957F4F8F4F9F4F41
:101EA0000895E89409C097FB3EF49095809570954D
:101EB00061957F4F8F4F9F4F9923A9F0F92F96E996
:101EC000BB279395F695879577956795B795F1110B
:101ED000F8CFFAF4BB0F11F460FF1BC06F5F7F4FA8
:101EE0008F4F9F4F16C0882311F096E911C07723BA
:101EF00021F09EE8872F762F05C0662371F096E8C3
:101F0000862F70E060E02AF09A95660F771F881F91
:101F1000DAF7880F9695879597F90895990F000835
:101F2000550FAA0BE0E8FEEF16161706E807F907AB
:101F3000C0F012161306E407F50798F0621B730B46
:101F4000840B950B39F40A2661F0232B242B252BC7
:101F500021F408950A2609F4A140A6958FEF811D6A
:101F6000811D089597F99F6780E870E060E008950B
:101F70009FEF80EC089500240A94161617061806A1
:101F80000906089500240A9412161306140605067D
:101F90000895092E0394000C11F4882352F0BB0F0E
:101FA00040F4BF2B11F460FF04C06F5F7F4F8F4F71
:101FB0009F4F089557FD9058440F551F59F05F3FAC
:101FC00071F04795880F97FB991F61F09F3F79F05B
:101FD00087950895121613061406551FF2CF4695DD
:101FE000F1DF08C0161617061806991FF1CF86955F
:101FF0007105610508940895E894BB276627772743
:10200000CB0197F908950E948E0F08F48FEF089581
:102010000E941B100C94C90F0E94BB0F38F00E9445
:10202000C20F20F0952311F00C94B20F0C94B80F4E
:1020300011240C94FD0F0E94DA0F70F3959FC1F3E9
:10204000950F50E0551F629FF001729FBB27F00D66
:10205000B11D639FAA27F00DB11DAA1F649F6627BB
:10206000B00DA11D661F829F2227B00DA11D621F0A
:10207000739FB00DA11D621F839FA00D611D221FC4
:10208000749F3327A00D611D231F849F600D211DA8
:10209000822F762F6A2F11249F5750409AF0F1F02B
:1020A00088234AF0EE0FFF1FBB1F661F771F881F94
:1020B00091505040A9F79E3F510580F00C94B20F0B
:1020C0000C94FD0F5F3FE4F3983ED4F3869577952B
:1020D0006795B795F795E7959F5FC1F7FE2B880F3A
:1020E000911D9695879597F9089519F416F40C9417
:1020F000B80F0C94C0100E94E20FB8F39923C9F3F3
:10210000B6F39F57550B87FF0E94CE100024A0E620
:1021100040EA900180585695979528F4805C660FA8
:10212000771F881F20F026173707480730F4621BF7
:10213000730B840B202931294A2BA69517940794F9
:10214000202531254A2758F7660F771F881F20F072
:1021500026173707480730F4620B730B840B200DEA
:10216000311D411DA09581F7B901842F9158880F29
:102170009695879508950E948E0F880B990B089568
:102180009F3F31F0915020F4879577956795B795EB
:10219000880F911D9695879597F908959150504015
:1021A000660F771F881FD2F70895A1E21A2EAA1B87
:1021B000BB1BFD010DC0AA1FBB1FEE1FFF1FA217F7
:1021C000B307E407F50720F0A21BB30BE40BF50BF4
:1021D000661F771F881F991F1A9469F7609570957D
:1021E000809590959B01AC01BD01CF010895EE0F44
:1021F000FF1F0590F491E02D099481E090E0F894A0
:082200000C940211F894FFCFC9
:10220800003C1C46003C1CC6003C1C46003C1CC64E
:10221800900190010000000028059101CA046F0593
:10222800FB04D904ED0400000000960691019C050A
:102238009B05574541544845522053544154494FF2
:102248004E2100202D3E200025006E616E00696E33
:1022580066006F766600252020200054656D706545
:102268007261747572653A20002048756D696469F9
:1022780074793A200020252C204865617420496E25
:0A2288006465783A20000D0A00009A
:00000001FF
