:100000000C9462000C94AE050C9487050C948A0045
:100010000C948A000C948A000C948A000C948A0038
:100020000C948A000C948A000C948A000C948A0028
:100030000C948A000C948A000C948A000C948A0018
:100040000C943D050C948A000C94A3060C947D0638
:100050000C948A000C948A000C948A000C948A00F8
:100060000C948A000C948A000000000024002700F1
:100070002A0000000000250028002B0000000008D6
:10008000000201000003040700000000000000005F
:1000900000000000230026002900040404040404D6
:1000A0000404020202020202030303030303010227
:1000B00004081020408001020408102001020408F6
:1000C0001020F20B11241FBECFEFD8E0DEBFCDBF52
:1000D00011E0A0E0B1E0E0E7F2E202C005900D928D
:1000E000AA38B107D9F722E0AAE8B1E001C01D9211
:1000F000AD36B207E1F710E0C2E6D0E004C02197C8
:10010000FE010E942B11C136D107C9F70E945D0C78
:100110000C9436110C940000CF92DF92EF92FF9274
:10012000CF93DF93B0912F02882311F0AB2F01C042
:10013000A0E08091300290E0880F991F80579F4F78
:10014000C0903502D0903602E0903702F09038022D
:1001500020E030E0FC01C591D491E881EB23A901B6
:1001600060E070E0EA130CC02F5F3F4F4C155D0557
:100170006E057F0578F33FEF2FEF8FEF9FEF03C002
:10018000322F252FCB01632F722FDF91CF91FF905C
:10019000EF90DF90CF9008953FB7F8948091570289
:1001A00090915802A0915902B0915A0226B5A89B8D
:1001B00005C02F3F19F00196A11DB11D3FBFBA2FF9
:1001C000A92F982F8827820F911DA11DB11DBC0159
:1001D000CD0142E0660F771F881F991F4A95D1F71E
:1001E00008950895CF92DF92EF92FF920F931F939D
:1001F000CF93DF936C017A018B01C0E0D0E0CE1584
:10020000DF0589F0D8016D918D01D601ED91FC914A
:100210000190F081E02DC6010995892B11F47E0132
:1002200002C02196ECCFC701DF91CF911F910F91B2
:10023000FF90EF90DF90CF900895FC01538D448D97
:10024000252F30E0842F90E0821B930B541710F081
:10025000CF96089501970895FC01918D828D98178E
:1002600061F0828DDF01A80FB11D5D968C91928D9A
:100270009F5F9F73928F90E008958FEF9FEF089597
:10028000FC01918D828D981731F0828DE80FF11D60
:10029000858D90E008958FEF9FEF0895FC01918D7B
:1002A000228D892F90E0805C9F4F821B91098F7374
:1002B000992708958BE891E00E944E0121E0892B57
:1002C00009F420E0822F0895FC01848DDF01A80F3E
:1002D000B11DA35ABF4F2C91848D90E001968F736E
:1002E0009927848FA689B7892C93A089B1898C918D
:1002F00080648C93938D848D981306C00288F38953
:10030000E02D80818F7D80830895EF92FF920F937F
:100310001F93CF93DF93EC0181E0888F9B8D8C8DB1
:10032000981305C0E889F989808185FD24C0F62EDF
:100330000B8D10E00F5F1F4F0F731127E02E8C8D78
:10034000E8120CC00FB607FCFACFE889F989808162
:1003500085FFF5CFCE010E946401F1CF8B8DFE01A8
:10036000E80FF11DE35AFF4FF0820B8FEA89FB89FA
:100370008081806207C0EE89FF896083E889F989FE
:1003800080818064808381E090E0DF91CF911F9134
:100390000F91FF90EF900895CF93DF93EC01888D3C
:1003A0008823C9F0EA89FB89808185FD05C0A88979
:1003B000B9898C9186FD0FC00FB607FCF5CF8081FF
:1003C00085FFF2CFA889B9898C9185FFEDCFCE0149
:1003D0000E946401E7CFDF91CF91089580E090E023
:1003E000892B29F00E945A0181110C940000089574
:1003F0000E943111833081F028F4813099F08230ED
:10040000A1F008958730A9F08830B9F08430D1F494
:10041000809180008F7D03C0809180008F778093D2
:100420008000089584B58F7702C084B58F7D84BD28
:1004300008958091B0008F7703C08091B0008F7DC8
:100440008093B00008951F93CF93DF93282F30E05F
:10045000F901E458FF4F8491F901E255FF4FD4911F
:10046000F901E656FF4FC491CC23C9F0162F811134
:100470000E94FA01EC2FF0E0EE0FFF1FEE58FF4F45
:10048000A591B4918FB7F894111105C09C91ED2FEF
:10049000E095E92302C0EC91ED2BEC938FBFDF9147
:1004A000CF911F910895CF93DF93EC0160E08E818F
:1004B0000E94230261E08E810E94230260E08E810F
:1004C0000E9423028BE891E00197F1F7DF91CF9131
:1004D0000895CF92DF92EF92FF920F931F93CF93E5
:1004E000DF937C016C0187E0C80ED11CC0E0D0E036
:1004F000062F10E0B8010C2E02C0759567950A947E
:10050000E2F76170F60181916F010E94230221964A
:10051000C430D10579F7C701DF91CF911F910F91B9
:10052000FF90EF90DF90CF900C945302CF92DF9228
:10053000EF92FF920F931F93CF93DF93EC01F62E70
:10054000642F8C810E9423028D818F3F19F060E01F
:100550000E9423028F850F2D10E084FF25C06E01BD
:1005600087E0C80ED11CE12CF12CB8010E2C02C082
:10057000759567950A94E2F76170F60181916F01B4
:100580000E942302FFEFEF1AFF0A88E0E816F10449
:1005900061F7CE01DF91CF911F910F91FF90EF9006
:1005A000DF90CF900C945302B80184E07595679565
:1005B0008A95E1F7CE010E9469026F2DCE01DF918D
:1005C000CF911F910F91FF90EF90DF90CF900C94FF
:1005D000690241E00E94960281E090E0089540E0C7
:1005E0000C949602843008F083E090914D028917B4
:1005F00010F08FEF890FE82FF0E0E65CFD4F648983
:1006000060688AE392E00C94EF02CF93DF9381E07D
:100610000E94F202C0E1D0E0E0913A02F0913B0288
:100620000190F081E02D60E28AE392E00995219744
:1006300099F7DF91CF910895CF93DF9390E0FC017C
:10064000E255FF4F2491FC01E656FF4F8491882329
:1006500061F190E0880F991FFC01E859FF4FC591A7
:10066000D491FC01EE58FF4FA591B491611109C0DE
:100670009FB7F8948881209582238883EC912E235C
:100680000BC0623061F49FB7F8943881822F809557
:1006900083238883EC912E2B2C939FBF06C08FB7AA
:1006A000F894E8812E2B28838FBFDF91CF91089596
:1006B000EF92FF920F931F93CF93DF93EC01623081
:1006C00018F08F8588608F876B8B1C8A80E48D8BF8
:1006D00080E18E8B80E58F8B61E08C810E941C0312
:1006E0008D818F3F19F061E00E941C0361E08E81D3
:1006F0000E941C037E0187E0E80EF11C00E010E080
:100700008F8584FD03C084E090E002C088E090E023
:10071000081719074CF461E0F70181917F010E94ED
:100720001C030F5F1F4FECCF8BE39DE00197F1F7A8
:1007300060E08C810E94230260E08E810E9423028F
:100740008D818F3F19F060E00E9423026F8564FD68
:100750001DC063E0CE010E9469020BE416E4C801EB
:100760000197F1F763E0CE010E946902C801019789
:10077000F1F763E0CE010E94690283E592E0019700
:10078000F1F762E0CE010E94690216C06062CE01FC
:100790000E94EF028BE496E40197F1F76F856062A7
:1007A000CE010E94EF0283E592E00197F1F76F8599
:1007B0006062CE010E94EF026F856062CE010E94EE
:1007C000EF0284E0888B6CE0CE010E94EF0261E0D2
:1007D000CE010E94EF028BE39FE10197F1F782E0E7
:1007E000898B66E0CE01DF91CF911F910F91FF9031
:1007F000EF900C94EF028F929F92AF92BF92CF92A4
:10080000DF92EF92FF926B017C010E94CC004B01C2
:100810005C01C114D104E104F104F1F00E94CC00A8
:10082000DC01CB0188199909AA09BB09883E9340CC
:10083000A105B10570F321E0C21AD108E108F10861
:1008400088EE880E83E0981EA11CB11CC114D1044F
:10085000E104F10419F7DDCFFF90EF90DF90CF9026
:10086000BF90AF909F908F9008952FB7F8946091AC
:1008700053027091540280915502909156022FBFFD
:100880000895CF92DF92EF92FF920F931F93CF9331
:10089000DF93CDB7DEB7C054D1400FB6F894DEBFBA
:1008A0000FBECDBF0E94350400913102109132027B
:1008B00020913302309134026B017C01C01AD10ABD
:1008C000E20AF30A40EDC41647E0D406E104F1045D
:1008D00018F480913902C1C06093310270933202E2
:1008E000809333029093340210922C0210922B02C8
:1008F00010922A02109229021092280262E080913E
:100900002D020E941C0361E070E080E090E00E94F4
:10091000FB0361E080912D020E941C0360E0809146
:100920002D020E94230280912E028551823028F4EC
:100930008BE291E10197F1F706C064E170E080E09D
:1009400090E00E94FB0362E080912D020E941C0354
:100950008BE990E00197F1F7F89480E00E948C0019
:100960006F3F7F4F8F4F9F4F21F410923902789441
:1009700041C081E00E948C006F3F7F4F8F4F9F4F9F
:10098000A1F38E010F5F1F4F6E012FEBC21A2EEFE6
:10099000D20A780180E00E948C00F70160837183A5
:1009A0008283938381E00E948C00F70164837583C6
:1009B00086839783F8E0EF0EF11CEC14FD0451F7E9
:1009C000789420E030E0F8014081518162817381A8
:1009D000C480D580E680F7804F3FFFEF5F076F0749
:1009E0007F0731F08FEFC816D806E806F80621F425
:1009F0001092390280E031C0F90183E0F595E79566
:100A00008A95E1F7E85DFD4F8081880F4C155D0503
:100A10006E057F0508F4816080832F5F3F4F085F7C
:100A20001F4F2832310579F620912C0230E0409199
:100A300028028091290290E0840F911D40912A02A2
:100A4000840F911D40912B02840F911D9927281727
:100A5000390771F681E080933902C05CDE4F0FB632
:100A6000F894DEBF0FBECDBFDF91CF911F910F91E4
:100A7000FF90EF90DF90CF9008951F920F920FB6E6
:100A80000F9211242F933F938F939F93AF93BF9314
:100A90008091530290915402A0915502B091560258
:100AA0003091520223E0230F2D3720F40196A11D2F
:100AB000B11D05C026E8230F0296A11DB11D20938C
:100AC00052028093530290935402A0935502B09324
:100AD00056028091570290915802A0915902B0910C
:100AE0005A020196A11DB11D80935702909358029E
:100AF000A0935902B0935A02BF91AF919F918F91E9
:100B00003F912F910F900FBE0F901F9018951F923D
:100B10000F920FB60F9211242F933F934F935F9331
:100B20006F937F938F939F93AF93BF93EF93FF93B5
:100B3000E0910201F09103010995FF91EF91BF91BE
:100B4000AF919F918F917F916F915F914F913F9165
:100B50002F910F900FBE0F901F9018951F920F921C
:100B60000FB60F9211242F933F934F935F936F9380
:100B70007F938F939F93AF93BF93EF93FF93E091F6
:100B80000001F09101010995FF91EF91BF91AF91A3
:100B90009F918F917F916F915F914F913F912F9195
:100BA0000F900FBE0F901F901895DC01ED91FC91F6
:100BB0000190F081E02D09946115710579F0FB0138
:100BC00001900020E9F73197AF01461B570BDC017C
:100BD000ED91FC910280F381E02D099480E090E09A
:100BE00008954F925F926F927F92EF92FF920F93D0
:100BF0001F93CF93DF93CDB7DEB7A1970FB6F894CD
:100C0000DEBF0FBECDBF7C01FA01CB0119A222309D
:100C100008F42AE08E010F5D1F4F422E512C612CEB
:100C2000712CBF01A30192010E940911F901CA01AF
:100C3000015011096A3014F4605D01C0695CD8018B
:100C40006C93232B242B252B61F7B801C7010E943D
:100C5000DC05A1960FB6F894DEBF0FBECDBFDF91C5
:100C6000CF911F910F91FF90EF907F906F905F90C9
:100C70004F9008950C94DC05CF92DF92EF92FF9293
:100C80000F931F93CF93DF93CDB7DEB727970FB6A0
:100C9000F894DEBF0FBECDBF6B017C0181E04F83B6
:100CA0000E94F202C982DA82EB82FC821E821D82DD
:100CB00061E671E08AE392E00E943A06BE016F5F4E
:100CC0007F4F8AE392E00E94E0068C016FED0E9464
:100CD000D5054F81642FC8010E94D50527960FB610
:100CE000F894DEBF0FBECDBFDF91CF911F910F9162
:100CF000FF90EF90DF90CF9008951F920F920FB664
:100D00000F9211242F933F934F935F936F937F9391
:100D10008F939F93AF93BF93EF93FF938BE891E0F3
:100D20000E946401FF91EF91BF91AF919F918F91CC
:100D30007F916F915F914F913F912F910F900FBED7
:100D40000F901F9018951F920F920FB60F921124BB
:100D50002F938F939F93EF93FF93E0919B01F091DB
:100D60009C018081E091A101F091A20182FD12C05D
:100D700090818091A4018F5F8F732091A5018217CC
:100D800051F0E091A401F0E0E557FE4F958F80937C
:100D9000A40101C08081FF91EF919F918F912F91CC
:100DA0000F900FBE0F901F901895089580E090E06F
:100DB00008959091680281E08927809368020895E0
:100DC0004F925F926F927F928F929F92AF92BF925B
:100DD000CF92DF92EF92FF92CF93DF93EC01FB0172
:100DE000B480C080D180E280F380A7019601C70162
:100DF000B6010E94EF10882319F062E371E01AC077
:100E000026013701E89477F82FEF3FEF4FE75FE7D0
:100E1000C301B2010E94EF10811110C02FEF3FEF0C
:100E20004FE75FE7C301B2010E94DF0E181634F4EA
:100E300066E371E0CE010E94DC057FC02FEF3FEF3B
:100E40004FE75FE4C701B6010E94371018161CF483
:100E50006AE371E0EFCF2FEF3FEF4FE75FECC701A1
:100E6000B6010E94DF0E87FDF3CF20E030E0A9013C
:100E7000C701B6010E94DF0E87FF08C06DE2CE01F8
:100E80000E94D505F7FAF094F7F8F094A12C60E0F1
:100E900070E080E09FE3AB1440F420E030E040E2FB
:100EA00051E40E94E40EA394F6CF9B01AC01C7016C
:100EB000B6010E94730E2B013C010E94560F6B017C
:100EC0007C010E94850F9B01AC01C301B2010E940D
:100ED000720E2B013C012AE0B701A601CE010E944F
:100EE000F105BB2021F06EE2CE010E94D505FB2C5E
:100EF000FF2019F120E030E040E251E4C301B201EB
:100F00000E943C102B013C010E94560F4B01A12C6A
:100F1000B12C2AE0B501A401CE010E94F105C50162
:100F2000B4010E94850F9B01AC01C301B2010E9474
:100F3000720E2B013C01FA94DBCFCE01DF91CF91F1
:100F4000FF90EF90DF90CF90BF90AF909F908F90E9
:100F50007F906F905F904F9008952F923F924F92A5
:100F60005F926F927F928F929F92AF92BF92CF9239
:100F7000DF92EF92FF920F931F93CF93DF93CDB742
:100F8000DEB7A2970FB6F894DEBF0FBECDBF80913B
:100F900067028D8F0E944104882309F45BC0809111
:100FA0002E028B3008F456C08D30C8F08551823047
:100FB00008F050C010912A02612F6F7770E0762FF1
:100FC000662780912B02682B80E090E00E94850FBD
:100FD0002DEC3CEC4CEC5DE30E943C101FC01091EA
:100FE0002A02612F70E080E090E00E94850F6B0183
:100FF0007C0180912B028F70682F70E080E090E080
:101000000E94870F2DEC3CEC4CEC5DE30E943C1001
:101010009B01AC01C701B6010E94730E6B017C01FC
:1010200017FF04C0F7FAF094F7F8F0948D8D882339
:10103000B9F026E636E646EE5FE3C701B6010E9448
:101040003C1020E030E040E052E40E94730E6B015F
:101050007C0106C0C12CD12C30ECE32E3FE7F32EEF
:10106000C0925F02D0926002E0926102F09262024E
:10107000A0901001B0901101009112011091130184
:101080009501A801C701B6010E943710181614F483
:1010900056018701C501D801809310019093110179
:1010A000A0931201B0931301A0900C01B0900D0118
:1010B00000910E0110910F019501A801C701B60121
:1010C0000E94DF0E87FF02C056018701C501D801CB
:1010D00080930C0190930D01A0930E01B0930F012A
:1010E0000E9441048823E1F180912E028B30C0F1EF
:1010F0008D30B0F08551823098F56091280270E013
:10110000762F662780912902682B80E090E00E946C
:10111000850F2DEC3CEC4CEC5DE30E943C101DC0B7
:101120006091280270E080E090E00E94870F4B0100
:101130005C0180912902682F70E080E090E00E94BD
:10114000870F2DEC3CEC4CEC5DE30E943C109B01C6
:10115000AC01C501B4010E94730E1B014C0106C015
:10116000212C312C80EC882E9FE7992EC101D401CF
:1011700080935B0290935C02A0935D02B0935E0249
:10118000A0900801B090090100910A0110910B0193
:101190009501A801B101C4010E943710181614F47A
:1011A00051018401C501D801809308019093090180
:1011B000A0930A01B0930B01A0900401B090050127
:1011C00000910601109107019501A801B101C40128
:1011D0000E94DF0E87FF02C051018401C501D801C2
:1011E0008093040190930501A0930601B093070139
:1011F0008D8D811113C026E636E646EE5FE3C7010A
:10120000B6010E943C1020E030E040E052E40E9431
:10121000730E162F072FB82EA92E04C01C2D0D2DCE
:10122000BE2CAF2C20E030E044E752E4612F702F59
:101230008B2D9A2D0E94730E2B013C0120E030E093
:1012400048E852E4612F702F8B2D9A2D0E94720E68
:101250002AE939E949E95FE30E943C109B01AC01AE
:10126000C301B2010E94730E2B013C0122E133E85D
:1012700040EC5DE3B101C4010E943C109B01AC0154
:10128000C301B2010E94730E20E030E040E05FE352
:101290000E943C106F8B7B8B8B8F9C8F20E030E00B
:1012A0004EE952E40E94371018160CF097C1212F16
:1012B000302F4B2D5A2D612F702F8B2D9A2D0E9480
:1012C0003C102B013C019101A401B101C4010E9419
:1012D0003C106F8B788F898F9A8F21E133E243E046
:1012E00050E4612F702F8B2D9A2D0E943C1029E124
:1012F00034E849E252E40E94720E6B8B7C8B8D8B3A
:101300009E8B26E13BE442E251E4B101C4010E941C
:101310003C109B01AC016B897C898D899E890E9460
:10132000730E6B8B7C8B8D8B9E8B28E436E246E6AE
:101330005EEB612F702F8B2D9A2D0E943C10910136
:10134000A4010E943C109B01AC016B897C898D89B2
:101350009E890E94730E6B8B7C8B8D8B9E8B20EEF7
:101360003FE040EE5BEBC301B2010E943C109B01E9
:10137000AC016B897C898D899E890E94730E6B8B71
:101380007C8B8D8B9E8B28EF37E840E65DEB6F8979
:10139000788D898D9A8D0E943C109B01AC016B89E0
:1013A0007C898D899E890E94730E6B8B7C8B8D8BC3
:1013B0009E8B2CEA3DE041EA5AE3C301B2010E9450
:1013C0003C109101A4010E943C109B01AC016B896F
:1013D0007C898D899E890E94730E6B8B7C8B8D8B93
:1013E0009E8B28EC3FE84FE55AE3612F702F8B2D41
:1013F0009A2D0E943C102F89388D498D5A8D0E945C
:101400003C109B01AC016B897C898D899E890E946F
:10141000730E6B8B7C8B8D8B9E8B21EF3BE845E0B5
:1014200056EBC301B2010E943C102F89388D498DC3
:101430005A8D0E943C109B01AC016B897C898D897F
:101440009E890E94730E6F8B7B8B8B8F9C8F20E00D
:1014500030E040E551E4B101C4010E94DF0E87FF96
:1014600068C020E030E040EA52E4612F702F8B2DFD
:101470009A2D0E94371087FD5CC020E030E040EEDE
:1014800052E4612F702F8B2D9A2D0E94DF0E1816BB
:101490000CF49CC19101A40160E070E080E591E44E
:1014A0000E94720E20E030E040E85EE30E943C10B3
:1014B0006E8F7F8F88A399A320E030E04EEB52E43B
:1014C000612F702F8B2D9A2D0E94720E2B013C01E3
:1014D00020E030E0A9010E94371018164CF4A30157
:1014E000920160E070E088E891E40E94720E08C00A
:1014F00020E030E048E851E4C301B2010E94730EDD
:101500002EE33DEE40E75DE30E943C100E94AF10E9
:101510009B01AC016E8D7F8D88A199A10E943C102A
:101520009B01AC016F897B898B8D9C8D0E94720E13
:1015300051C020E030E04AEA52E4B101C4010E9407
:10154000371018160CF04AC020E030E040EA52E4B0
:10155000612F702F8B2D9A2D0E94371087FD3EC072
:1015600020E030E04EEA52E4612F702F8B2D9A2D4F
:101570000E94DF0E181694F120E030E04AEA52E4AF
:10158000B101C4010E94720E2DEC3CEC4CEC5DE309
:101590000E943C102B013C01212F302F4B2D5A2D46
:1015A00060E070E08EEA92E40E94720E2DEC3CEC5A
:1015B0004CE45EE30E943C109B01AC01C301B2010C
:1015C0000E943C109B01AC016F897B898B8D9C8DA7
:1015D0000E94730E6F8B7B8B8B8F9C8F8D8D8111F7
:1015E00013C020E030E040E052E46F897B898B8DAE
:1015F0009C8D0E94720E26E838E34EE05FE30E9465
:101600003C10162F072F04C01F890B898B8D9C8DD2
:10161000412F502FBC0140936302509364026093AA
:101620006502709366028D8D811102C023E401C0B2
:1016300026E480E02AA30E94F202C101D4018F8334
:101640009887A987BA8782E090E09C878B87C982B8
:10165000DA82EB82FC829E838D83BE016F5F7F4FB7
:101660008AE392E00E94E0068C016FED0E94D505AE
:101670002AA1622FC8010E94D50560E2C8010E941C
:10168000D505BE01695F7F4FC8010E94E0066EE389
:1016900071E00E943A0680916702811102C043E422
:1016A00001C046E46091630270916402809165021A
:1016B000909166020E943C0680916702811102C0EF
:1016C00013E401C016E4C0905B02D0905C02E0908D
:1016D0005D02F0905E0240915F0250916002609165
:1016E0006102709162028091630290916402A09104
:1016F0006502B09166028D879E87AF87B88B82E0C6
:1017000090E09A8B898BCF82D886E986FA869C876F
:101710008B8749835A836B837C839E838D8363E4A9
:1017200071E08BE891E00E943A06BE016F5F7F4F47
:101730008BE891E00E94E0067C01612F0E94D505B4
:1017400061E571E0C7010E943A06BE01695F7F4F03
:10175000C7010E94E0067C016DE571E00E943A0637
:10176000BE01635F7F4FC7010E94E0067C01612FCD
:101770000E94D5056EE671E0C7010E94DC058BE88A
:1017800091E00E94CC010E9435046093690270933D
:101790006A0280936B0290936C02A2960FB6F89443
:1017A000DEBF0FBECDBFDF91CF911F910F91FF9094
:1017B000EF90DF90CF90BF90AF909F908F907F90F1
:1017C0006F905F904F903F902F90089520E030E011
:1017D0004AEA52E4B101C4010E94371018160CF411
:1017E000BFCEFCCEEBE8F1E01382128288EE93E0EC
:1017F000A0E0B0E084839583A683B78388E191E07D
:101800009183808385EC90E09587848784EC90E0D9
:101810009787868780EC90E0918B808B81EC90E0BD
:10182000938B828B82EC90E0958B848B86EC90E09E
:10183000978B868B118E128E138E148EA8E2B2E0D7
:1018400086E015968C93159786E116968C931697DD
:10185000E4EBF0E0E4911796EC931797E0EAF0E000
:10186000E4911896EC93189740E85EE360E070E02E
:101870001D964D935D936D937C935097EAE3F2E050
:10188000138212828AE291E0918380838CE08483C8
:101890008FEF85838BE0868385E0878384E0808774
:1018A00083E0818787E082871386148615861686F3
:1018B000178661E0CF010C945803CF93DF93CDB727
:1018C000DEB764970FB6F894DEBF0FBECDBF789435
:1018D00084B5826084BD84B5816084BD85B5826035
:1018E00085BD85B5816085BD80916E0081608093E6
:1018F0006E0010928100809181008260809381004F
:10190000809181008160809381008091800081605E
:10191000809380008091B10084608093B1008091B9
:10192000B00081608093B00080917A0084608093E1
:101930007A0080917A00826080937A0080917A00A8
:10194000816080937A0080917A00806880937A0029
:101950001092C10062E088E00E941C0362E082E015
:101960000E941C0389ED96E0909301018093000191
:10197000809169008C7F826080936900E89A62E0C0
:101980008AE392E00E94580361E771E08AE392E003
:101990000E943A06E0919B01F0919C0182E08083D5
:1019A000E0919701F09198011082E0919901F091F6
:1019B0009A018FEC80831092A301E0919F01F09136
:1019C000A00186E08083E0919D01F0919E018081DD
:1019D00080618083E0919D01F0919E01808188600B
:1019E0008083E0919D01F0919E01808180688083D9
:1019F000E0919D01F0919E0180818F7D808368EB55
:101A00007BE080E090E00E94FB030E94AD070E9413
:101A100035046093690270936A0280936B0290931D
:101A20006C0202E010E00E943504C0906902D09080
:101A30006A02E0906B02F0906C02DC01CB018C1921
:101A40009D09AE09BF0981369A4EA105B10510F076
:101A50000E94AD0780916802882309F4ACC00E94FF
:101A6000AD078090630290906402A0906502B090F0
:101A700066028091040190910501A0910601B09148
:101A800007018D879E87AF87B88B409008015090E3
:101A9000090160900A0170900B0180916702811129
:101AA00003C023E4322E02C096E4392EC0900C010C
:101AB000D0900D01E0900E01F0900F0140911001C7
:101AC000509111016091120170911301498B5A8B51
:101AD0006B8B7C8B0E94050381E00E94F202498996
:101AE0005A896B897C894F83588769877A871C87D5
:101AF0000B87C982DA82EB82FC821E830D83BE01D2
:101B00006F5F7F4F8AE392E00E94E0067C0162E80B
:101B100071E00E943A06BE01695F7F4FC7010E94D3
:101B2000E0067C016FED0E94D505632DC7010E9480
:101B3000D50560ED77E080E090E00E94FB030E9415
:101B4000050381E00E94F2024F82588669867A86F8
:101B50001C870B878D859E85AF85B88989839A837D
:101B6000AB83BC831E830D83BE016F5F7F4F8AE30F
:101B700092E00E94E0067C0162E871E00E943A0671
:101B8000BE01695F7F4FC7010E94E00667E871E010
:101B90000E943A0660ED77E080E090E00E94FB034F
:101BA000432DC501B4010E943C069091680281E07A
:101BB000892780936802E4E8F0E08491E6EBF0E0A6
:101BC000E490E2EAF0E0F490FF2079F081110E94C5
:101BD000FA01EF2DF0E0EE0FFF1FE057FF4FA59148
:101BE000B4918C91E82209F049C068EE73E080E07E
:101BF00090E00E94FB03F0906702FF2009F441C0CF
:101C000020E030E040E052E4609110017091110159
:101C100080911201909113010E94720E26E838E320
:101C20004EE05FE30E943C1060931001709311013D
:101C3000809312019093130120E030E040E052E4E1
:101C400060910C0170910D0180910E0190910F0136
:101C50000E94720E26E838E34EE05FE30E943C10DB
:101C600060930C0170930D0180930E0190930F010E
:101C700081E08F25809367020E94AD070E94EE01EC
:101C8000D2CE26E636E646EE5FE360911001709113
:101C9000110180911201909113010E943C1020E0EB
:101CA00030E040E052E40E94730E609310017093A4
:101CB0001101809312019093130126E636E646EE59
:101CC0005FE360910C0170910D0180910E01909184
:101CD0000F010E943C1020E030E040E052E40E94FE
:101CE000730EBECF5058BB27AA270E948A0E0C94B1
:101CF000FD0F0E94EF0F38F00E94F60F20F039F42C
:101D00009F3F19F426F40C94EC0F0EF4E095E7FBDA
:101D10000C94E60FE92F0E940E1058F3BA176207D1
:101D200073078407950720F079F4A6F50C9430101A
:101D30000EF4E0950B2EBA2FA02D0B01B9019001E6
:101D40000C01CA01A0011124FF27591B99F0593F2A
:101D500050F4503E68F11A16F040A22F232F342F72
:101D60004427585FF3CF469537952795A795F040C0
:101D70005395C9F77EF41F16BA0B620B730B840BD5
:101D8000BAF09150A1F0FF0FBB1F661F771F881F8D
:101D9000C2F70EC0BA0F621F731F841F48F48795E5
:101DA00077956795B795F7959E3F08F0B0CF9395D7
:101DB000880F08F09927EE0F9795879508950E9450
:101DC000C20F08F481E008950E94F80E0C94FD0FF4
:101DD0000E94F60F58F00E94EF0F40F029F45F3F89
:101DE00029F00C94E60F51110C9431100C94EC0F67
:101DF0000E940E1068F39923B1F3552391F3951BBC
:101E0000550BBB27AA2762177307840738F09F5F1B
:101E10005F4F220F331F441FAA1FA9F335D00E2E88
:101E20003AF0E0E832D091505040E695001CCAF7F5
:101E30002BD0FE2F29D0660F771F881FBB1F2617B8
:101E400037074807AB07B0E809F0BB0B802DBF018F
:101E5000FF2793585F4F3AF09E3F510578F00C945E
:101E6000E60F0C9431105F3FE4F3983ED4F386956F
:101E700077956795B795F7959F5FC9F7880F911D7F
:101E80009695879597F90895E1E0660F771F881F6B
:101E9000BB1F621773078407BA0720F0621B730B1E
:101EA000840BBA0BEE1F88F7E09508950E94161078
:101EB00088F09F5798F0B92F9927B751B0F0E1F00B
:101EC000660F771F881F991F1AF0BA95C9F714C0BB
:101ED000B13091F00E943010B1E008950C943010B0
:101EE000672F782F8827B85F39F0B93FCCF38695F4
:101EF00077956795B395D9F73EF490958095709551
:101F000061957F4F8F4F9F4F0895E89409C097FBCD
:101F10003EF490958095709561957F4F8F4F9F4FC0
:101F20009923A9F0F92F96E9BB279395F695879504
:101F300077956795B795F111F8CFFAF4BB0F11F4C7
:101F400060FF1BC06F5F7F4F8F4F9F4F16C088236E
:101F500011F096E911C0772321F09EE8872F762FA4
:101F600005C0662371F096E8862F70E060E02AF0E5
:101F70009A95660F771F881FDAF7880F96958795D1
:101F800097F90895990F0008550FAA0BE0E8FEEFA6
:101F900016161706E807F907C0F012161306E4072D
:101FA000F50798F0621B730B840B950B39F40A2626
:101FB00061F0232B242B252B21F408950A2609F404
:101FC000A140A6958FEF811D811D089597F99F6708
:101FD00080E870E060E008959FEF80EC08950024B1
:101FE0000A941616170618060906089500240A947E
:101FF00012161306140605060895092E0394000C04
:1020000011F4882352F0BB0F40F4BF2B11F460FF92
:1020100004C06F5F7F4F8F4F9F4F089557FD9058BB
:10202000440F551F59F05F3F71F04795880F97FB9C
:10203000991F61F09F3F79F0879508951216130656
:102040001406551FF2CF4695F1DF08C01616170685
:102050001806991FF1CF86957105610508940895BA
:10206000E894BB2766277727CB0197F908950E944C
:10207000C20F08F48FEF08950E944F100C94FD0FCB
:102080000E94EF0F38F00E94F60F20F0952311F018
:102090000C94E60F0C94EC0F11240C9431100E9458
:1020A0000E1070F3959FC1F3950F50E0551F629F7E
:1020B000F001729FBB27F00DB11D639FAA27F00DA1
:1020C000B11DAA1F649F6627B00DA11D661F829FC8
:1020D0002227B00DA11D621F739FB00DA11D621FAD
:1020E000839FA00D611D221F749F3327A00D611DCA
:1020F000231F849F600D211D822F762F6A2F1124AC
:102100009F5750409AF0F1F088234AF0EE0FFF1FDE
:10211000BB1F661F771F881F91505040A9F79E3F35
:10212000510580F00C94E60F0C9431105F3FE4F3FE
:10213000983ED4F3869577956795B795F795E7958B
:102140009F5FC1F7FE2B880F911D9695879597F994
:10215000089519F416F40C94EC0F0C94F4100E94EA
:102160001610B8F39923C9F3B6F39F57550B87FFA1
:102170000E9402110024A0E640EA90018058569582
:10218000979528F4805C660F771F881F20F026172C
:102190003707480730F4621B730B840B2029312961
:1021A0004A2BA69517940794202531254A2758F7DE
:1021B000660F771F881F20F026173707480730F46F
:1021C000620B730B840B200D311D411DA09581F70F
:1021D000B901842F9158880F9695879508950E948C
:1021E000C20F880B990B08959F3F31F0915020F456
:1021F000879577956795B795880F911D96958795E3
:1022000097F9089591505040660F771F881FD2F7B5
:102210000895A1E21A2EAA1BBB1BFD010DC0AA1F27
:10222000BB1FEE1FFF1FA217B307E407F50720F03F
:10223000A21BB30BE40BF50B661F771F881F991FBA
:102240001A9469F760957095809590959B01AC0103
:10225000BD01CF010895EE0FFF1F0590F491E02D11
:10226000099481E090E0F8940C943611F894FFCF33
:10227000F100F100003C1C46003C1CC6003C1C4622
:10228000003C1CC6000000008501F2001D01CC01CD
:102290004E012C01400100000000E902F200D606C8
:1022A000D5066E616E00696E66006F766600252049
:1022B00020200054656D70657261747572653A20F6
:1022C000002048756D69646974793A200020252CD6
:1022D000204865617420496E6465783A20000D0AD3
:1022E00000574541544845522053544154494F4E9C
:0A22F0002100202D3E2000250000F3
:00000001FF
